:020000040000FA
:10000000001000102102000033020000290200004D
:1000100000000000000000000000000000000000E0
:100020000000000000000000000000002B020000A3
:1000300000000000000000002D0200002F02000060
:1000400033020000330200003302000033020000DC
:1000500033020000330200003302000033020000CC
:1000600033020000330200003302000033020000BC
:1000700033020000330200003302000033020000AC
:10008000330200003302000033020000330200009C
:100090003302000033020000310200003102000090
:1000A000330200003302000033020000310200007E
:1000B000330200003302000033020000330200006C
:1000C000FFFFFFFFFFFFFFFFFFFFFFFFFFFFFFFF40
:1000D000FFFFFFFFFFFFFFFFFFFFFFFFFFFFFFFF30
:1000E000FFFFFFFFFFFFFFFFFFFFFFFFFFFFFFFF20
:1000F000FFFFFFFFFFFFFFFFFFFFFFFFFFFFFFFF10
:10010000FFFFFFFFFFFFFFFFFFFFFFFFFFFFFFFFFF
:10011000FFFFFFFFFFFFFFFFFFFFFFFFFFFFFFFFEF
:10012000FFFFFFFFFFFFFFFFFFFFFFFFFFFFFFFFDF
:10013000FFFFFFFFFFFFFFFFFFFFFFFFFFFFFFFFCF
:10014000FFFFFFFFFFFFFFFFFFFFFFFFFFFFFFFFBF
:10015000FFFFFFFFFFFFFFFFFFFFFFFFFFFFFFFFAF
:10016000FFFFFFFFFFFFFFFFFFFFFFFFFFFFFFFF9F
:10017000FFFFFFFFFFFFFFFFFFFFFFFFFFFFFFFF8F
:10018000FFFFFFFFFFFFFFFFFFFFFFFFFFFFFFFF7F
:10019000FFFFFFFFFFFFFFFFFFFFFFFFFFFFFFFF6F
:1001A000FFFFFFFFFFFFFFFFFFFFFFFFFFFFFFFF5F
:1001B000FFFFFFFFFFFFFFFFFFFFFFFFFFFFFFFF4F
:1001C000FFFFFFFFFFFFFFFFFFFFFFFFFFFFFFFF3F
:1001D000FFFFFFFFFFFFFFFFFFFFFFFFFFFFFFFF2F
:1001E000FFFFFFFFFFFFFFFFFFFFFFFFFFFFFFFF1F
:1001F000FFFFFFFFFFFFFFFFFFFFFFFFFFFFFFFF0F
:100200000648854601F00EFB00F018F800F01EFECF
:1002100000480047191C000001F0EAF90010001026
:100220000448804704480047FEE7FEE7FEE7FEE794
:10023000FEE7FEE77D1C000001020000042104A08F
:1002400002F05EFE0349086003490860FFF7DEFF25
:100250003A747400F0060010DC06001038B505464C
:10026000684605700C46086800230122694602F0C2
:10027000CDFE002802D00020C04338BDE068401CFD
:10028000E060284638BD30B50B46014600202022EC
:10029000012409E00D46D5409D4205D31D469540F9
:1002A000491B2546954040191546521E002DF1DC8C
:1002B00030BD70B500242546002801DA01244042F3
:1002C000002901DA01254942FFF7DDFFAC4200D0E9
:1002D0004042002C00D0494270BD421C0178401CB5
:1002E0000029FBD1801A70470122D207002800DBC9
:1002F000101A002900DB511A81427047FFFFFFFFEF
:10030000F0B58BB0E04C204602F0ECFE8011DF49E6
:1003100008600868C10F09184910DC4A11601046CE
:100320000068400011460860D9480068D949086053
:10033000D94909681268881A01F014F8D44908608C
:10034000D4480168D248006800F0A5FD039001F090
:1003500041F80646002201239B0700F08BFFCF4A9D
:10036000CF4B0591049000F01DFF09910890CD48F6
:10037000006801F02FF807910690099B089A00F099
:100380005FFE044601F062F8C6490860C148016892
:10039000BF48006800F0D0FD064601F01BF8044697
:1003A000BE4ABF4B00F066FFBF4A03C2BF49BD480B
:1003B000006801F067F802D2BC48BA490860BC493D
:1003C000B8480068FFF790FF02D2B948B549086005
:1003D00000221346B44903C900F0E4FE05910490DD
:1003E000B048006800F0F6FF0446B24AB24B00F095
:1003F000D9FE01910090A648006800F0EBFF04468A
:10040000AE4AAF4B00F0CEFE0646019B009A00F0CC
:1004100017FE03910290059B049A00F011FE002242
:10042000A84B0791069000F0BDFE0991089001F0DD
:100430000DF8A549086095480068002803DD934839
:100440000068BE2802DB00209F4908609F499E4843
:10045000006800F0B6FD9C4908600846006800F09E
:10046000B9FF9B4A03C200229A4B994903C900F085
:10047000D9FF04D200219748954A116050600022AC
:10048000954B934903C900F0B9FF04D2002192486B
:100490008F4A116050608E4903C900F0D7FF0446AF
:1004A00021468E4801F0B3FF894903C900F0CEFF11
:1004B000044621468A4801F0AAFF0BB0F0BD1FB5E3
:1004C0008849864800F079FA8649854800F075FA2F
:1004D000854C864D864E8749304600F035FD0390A9
:1004E00000F064FF074629462046143001F0FDFC69
:1004F0003946204601F070FE00BF00BF01217E4852
:1005000001F0FCFD7F20C00503F062FC1FE0704895
:100510000CC85E48016879A001F0AEFF6148006830
:1005200000F058FF04460D465948006800F052FF9D
:1005300006460B465C4803C8324601950094039179
:10054000029074A001F098FF794803F041FCDEE7C7
:1005500030B58DB00020C04309900A900B900C90EC
:1005600005900690079008900190029003900490E7
:10057000CB20800075231B01872292006D490090DB
:100580005D4801F057FD04466B4A6C4900F06EFC73
:100590003D4C6B4D2946204602F06CFD00BF524C8D
:1005A000204601F021FC04466648002120602046D8
:1005B000143001F09EFC0546143D5F4A624928460E
:1005C00000F054FC0023614A6149624801F09CFD3F
:1005D0000446594A604900F049FC604B604A614951
:1005E0003F4800F0C4F90446534A5F4900F03EFC1E
:1005F00091239B015D4A13214902384800F0B7F965
:1006000004464D4A584900F031FC0020C04309908F
:100610000A900B900C90059006900790089001901E
:100620000290039004905248524B494A6C32AD21DB
:1006300049010090504801F067FC04463E4A4F498A
:1006400000F014FC01203021831E414A6C320091DD
:100650000190AD2149014A4800F0F2F90446364ABA
:10066000484900F003FC01203021831E404A0091DC
:1006700001904049444800F0E3F904462E4A4149BC
:1006800000F0F4FB0DB030BDC0000010C40000103D
:10069000EC000010F0000010C8000010FCA9F1D21E
:1006A0004D62503F00010010F800001000007A4435
:1006B00000007AC49A9999999999A93F0AD7A37089
:1006C0003D0AC73F00005940040100100000C84225
:1006D000D00000100000F03F0000F0BFCC0200107E
:1006E0002C0200109A99193F9C0100100103000090
:1006F0006F12833A00247449540100106164763A01
:1007000025642073706565643A25322E3266200DAB
:100710000A000000653A25660D0A2C2065693A2515
:10072000660D0A2C2065643A256C66200D0A0000CF
:100730000AD7A33D702B000000000000D520000068
:10074000981B0000FC4500004D220000A41600008C
:10075000A8170000CC010010352100002027000060
:100760002428000054290000ED2300004425000047
:10077000843000004C0600006C030010A91F00002C
:10078000B4030010DD1C0000D404001070B5044652
:100790000E46251D00206060A060E06020613146AB
:1007A000284602F0B3FD00BF2C1F2046143001F094
:1007B00039FD0446143C25464435284601F032FDF7
:1007C000054631482C46443C2860204670BD0160F7
:1007D0007047F8B504460D46164625602B4800962E
:1007E00021460CC82046143003F092FBF8BD10B52A
:1007F00004462046143001F0FDFC10BD38B5044617
:100800002068002804DC0021201D01F088FA0CE09B
:100810000121201D01F083FA206800901C48214628
:100820000CC82046443003F073FB38BD10B50446B5
:100830000021201D01F073FA10BD70B504460E466C
:1008400000BF0020205E401C002804D12122114955
:1008500011A002F0B5FE00BF0020205E0F210902AA
:1008600008400512002E07D0E06800680121A94069
:100870000843E168086006E0E06800680121A940DB
:100880008843E168086070BD10460000543F0000D6
:100890004C3F0000684600006F626A2D3E70696E32
:1008A00020213D202850696E4E616D65294E430020
:1008B000FEB504460E467F21C905304600F0E2FD34
:1008C00001D27F26F60554493046FFF70DFD00D2D0
:1008D000514E942006510021304600F0D3FD0AD23B
:1008E00001212046743001F01AFA0021204684309C
:1008F00001F015FA09E000212046743001F00FFAEA
:1009000001212046843001F00AFA9C20015930462A
:1009100000F01AFB054600BF6800400800BF0090C9
:1009200098200159009800F00FFB019000F025FD80
:10093000074639462046FFF74AFFFEBDF8B5044694
:100940000D463649284600F0FFFA074600F015FD2F
:10095000064600F007FD98210851085900F00DFDEA
:100960000646324600212046FFF733FFF8BDF8B5B2
:1009700004460F4615461E4631462046FFF706FF41
:10098000044639462046743001F0BBF90446743CF5
:1009900029462046843001F0B4F90446843C7D2188
:1009A000C9059C2001511E492046FFF7C7FF0021C1
:1009B0002046FFF77DFF2046F8BD9C22115070476E
:1009C000014694204058704770B504460E4600BF5B
:1009D0000020205E401C002804D12122114912A0D1
:1009E00002F0EEFD00BF0020205E0F21090208404A
:1009F0000512002E07D0E06800680121A9400843D5
:100A0000E168086006E0E06800680121A9408843C9
:100A1000E168086070BD0000000080BF00247449D8
:100A20006F12033A684600006F626A2D3E70696E6D
:100A300020213D202850696E4E616D65294E43008E
:100A4000FFB583B0044616461D460D9F201D049930
:100A500001F00CFA041F314620465C3001F006FA22
:100A600004465C3C29462046B43001F0FFF90446B8
:100A7000B43C0021FF2019300151001D0151FF211C
:100A80000D310C9808512770201D01F0D9F9029002
:100A900020465C3001F0D4F90190029840000199A1
:100AA0000843FF211531085108460159001F015123
:100AB000604821460CC8201D03F0BBF95E48214662
:100AC0000CC8201D03F0A4F9012F0DD1594821466F
:100AD0000CC820465C3003F0ACF9574821460CC8DE
:100AE00020465C3003F094F9681C002806D0534877
:100AF00021460CC82046B43003F09BF9204607B0CD
:100B0000F0BD0022FF2119310A50091D0A5070471B
:100B10000146FF201530405870470146FF2019302C
:100B2000405870470146FF201D3040587047F8B5C7
:100B300004460025201D01F083F9064620465C305E
:100B400001F07EF9074670003843FF211531085146
:100B50002078002835D1081F0059032803D1084602
:100B60000059002809D0FF201130005900280CD16D
:100B7000FF2015300059032807D1FF2019300059F4
:100B8000401CFF211931085145E0FF201130005968
:100B9000022804D1FF2015300059012809D0FF2078
:100BA00011300059012836D1FF2015300059022894
:100BB00031D1FF2019300059401EFF211931085151
:100BC00029E02078012826D1FF2015300059FF2187
:100BD00011310959484003281DD0FF201530015913
:100BE000001F0059814216D0FF201130005DC00760
:100BF000C00FFF2115310959022211404910484008
:100C00000546002D00D1451EFF2019300059411B1B
:100C1000FF2019300151FF2015300159001F0151EB
:100C2000F8BDFF211D310958491CFF221D3211500A
:100C3000704700005C3F0000643F00006C3F000014
:100C400003460B439B0703D009E008C9121F08C0E5
:100C5000042AFAD203E00B780370401C491C521E90
:100C6000F9D27047D2B201E00270401C491EFBD29B
:100C700070470022F6E710B513460A4604461946A7
:100C8000FFF7F0FF204610BD10B5002200E0521C17
:100C9000835C8C5CA34201D1002BF8D1D8B2E1B2C5
:100CA000401A10BD30B505460020034600E05B1C2D
:100CB000934205D2EC5CC85C201A01D1002CF6D11D
:100CC00030BD00000FB400B58DB009900B9010A995
:100CD00000200091C0430A9000200C900648069026
:100CE000064807906A4609A80F9900F041FC0DB02C
:100CF00008BC04B01847000091150000B1150000B1
:100D0000FFB50027FF4383B000205C6801909E6818
:100D10001D46A9697F1C049888470090296A884766
:100D20000028F6D10098401C0CD0032040028443D8
:100D3000002E19DD600614D500982B2809D02D2827
:100D40000FD103E00020C04307B0F0BD01208002B6
:100D50000443A9697F1C04988847761E0090002EE2
:100D600002DD0098302803D00598002825D035E012
:100D7000012040020443A969761E7F1C049888471D
:100D80000090002E03DD782805D0582803D0059860
:100D9000002810D022E00598002801D010281DD18D
:100DA000012040028443A969761E7F1C049888476D
:100DB0000090102002E0082000E00A2005900DE0DD
:100DC000012149020C43059A0199761E51430818E6
:100DD0000190A9697F1C049888470090002E05DDCA
:100DE0000599009800F0AFFB0028E9DAE96904985A
:100DF0008847A00502D40120C043A5E7E00722D11F
:100E0000600611D56005019800D5404229680A1D89
:100E10002A600968220501D5087014E0220701D56F
:100E2000088010E008600EE02868011D2960006855
:100E3000210502D50199017005E02107019901D52D
:100E4000018000E0016038467EE7000070B5054C87
:100E5000054D03E0206800198047241DAC42F9D1FC
:100E600070BD0000CC460000D0460000F8B5074633
:100E700015460E46102002F06DFB040009D0676095
:100E8000A660E56000F0A6FB016821600460002018
:100E9000F8BD0120F8BDF8B502464A40D40F420023
:100EA0004B0052085B089A4202D20246084611469D
:100EB0004A0023D0C30D4A00DDB2120EAD1A202D18
:100EC00035DA49020126490AF6058A19002C00D0B4
:100ED000524220214F1B1146B9402A411018C20D21
:100EE0009A4221D0002C17D0012D08DCDA05801A97
:100EF000D20F8019D207DBB200F0A3FBF8BDDA05F0
:100F0000801A012340001B06C01880185A4280181E
:100F1000CA0F1043490007E04908C2071143DA0528
:100F2000801A80194008801800F083FBF8BD61002A
:100F30000122511A001BF7E70122D2075140AAE70C
:100F40000122D2075040A6E7024670B54A40D30FAF
:100F5000DB0740002DD04A002AD0010E140E0002FB
:100F600012020919400A520A8418E5010446544342
:100F7000000A120A2E045043A4194219200CC5433A
:100F8000AA18120C0125AD03521C521912047F3904
:100F9000240400D0521C104301D44000491EC2B2A8
:100FA0000C06C0092018401C4008802A02D003E02B
:100FB000002070BD40084000002900DA00201843DE
:100FC00070BD70B502464A40D50F40004A00ED079B
:100FD00040085208002814D0002A12D0C40DD30DA6
:100FE00041020120C0055202490A520AE41A0918B6
:100FF00012187D34914201D3641C00E04900002C9A
:1010000001DA002070BD0023914201D3891A034305
:10101000400849000028F7D100290AD0914202D1A6
:101020000121C90705E0914201D2012101E001211E
:10103000C943E005C018401900F0FBFA70BD00007C
:10104000F0B507460846584087B0C00F04904800E6
:101050000E46590040084908BC1A884105D2384656
:1010600031461E4617460B460246580040081043BC
:101070004CD0300D039040055900400D490D0590AE
:10108000401A0290402872DA18030121000B09056A
:101090000843019004980092002805D0019952421B
:1010A0000020884100920190029840210A1A01997B
:1010B000009800F025FA05460C466B4607CB00F079
:1010C0002FFAC0197141039A0E0D0023D71756400D
:1010D0001A467A40164344D0049A002A2DD0029A28
:1010E000012A039A15DC1205C01A91410126360522
:1010F000001C7141D20F059ED20700930192029607
:101100002A46234600F0E3FA07B0F0BD38463146E0
:10111000FAE71605224A0F46B218C01AB741012154
:101120000905001C4F4100187F41114618187941EC
:10113000E20F10436D19644113E0E2076D08154397
:101140006408C2071443039A01261205C01A91418C
:101150003605001C7141CE07400830434908C018CD
:1011600051412A46234600F0A5FACDE7FFE704984F
:1011700001224000C117121A00238B410498314606
:10118000C417381AA141EEE730B40124E4076340E4
:1011900030BC55E730B40124E407614030BC4FE770
:1011A0000000E0FFF0B51FB488B00B990998002447
:1011B00048400999C00F490049080991C0070B9997
:1011C0000090490049080B9109990898A6460843E0
:1011D0001CD00B990A98084318D0099801244000A4
:1011E000420D4800410D099824050003000B2043DF
:1011F00009900B980003000B20430B9050181C49DA
:101200004018002201901446104605E000200146D7
:101210000DB0F0BD032801DA034600E003239C462D
:10122000C11A0AAE0AE05F0008ADED5B4F00F75B44
:101230007D430027AA187C41491C5B1E6145F2DDF5
:10124000410004AB5A522104120C0A43240C401CE6
:101250000828DFDB01980290009970460191009008
:10126000059B049A0799069800F031FAD0E7000030
:101270000DFCFFFFF0B50C465C4085B0E40FE407C1
:1012800003944C000026640859009446490802461D
:101290000296224321D062460A431ED06200570DB7
:1012A0004A000E032303550D012402462C49240550
:1012B000781B1B0B360B40182343264361460090D6
:1012C0001C46501AB44103D30098401C009002E021
:1012D000921800985B41002803DA0020014605B00F
:1012E000F0BD0020012109050746864611E064464D
:1012F0001D46141BB54106D36546521BB3417446C7
:1013000007430C43A646CD074008490828439218D6
:101310005B4105460D43EAD11046184313D06046A1
:10132000194650407140084306D06046101AB34138
:1013300006D20122002306E000220123DB0702E09F
:101340000122D2435310009874460105381C6141B4
:10135000029C039D0019694100F0ACF9BFE7000051
:10136000FD030000C217C10F504010B54018CA0756
:101370009623002100F065F910BDC20F4100400224
:101380000123400ADB05D207090EC0187F2901DAC4
:1013900000207047962903DC9623591AC84001E0C3
:1013A00096398840002AF4D04042704741004002FC
:1013B0000122400AD205090E80187F2901DA002097
:1013C0007047962903DC9622511AC8407047963917
:1013D00088407047C20FD207400040080BD0C10DB3
:1013E0000723DB01C91840020905400A1143C2085E
:1013F00040071143704700200146704710B500298F
:1014000004DB0124E40740428C412146002B04DB2D
:101410001C460123DB075242A3418B4200D182428A
:1014200010BD000010B5002904DB0124E407404290
:101430008C412146002B04DB1C460123DB07524272
:10144000A341994200D1904210BD0000CB0FDB07B1
:10145000490010B5490802460A4307D00A0D07247F
:101460000903E401090B121B002A01DC002010BD56
:10147000C900440F0C43C100E018D205801800F0E9
:10148000D8F810BD0122D207002800DB101A00296D
:1014900000DB511A8842704710B500F08BF910BD7F
:1014A000F0B51FB40646002082B0054640240191E5
:1014B00000901BE0019922460F46304600F0C4F927
:1014C000049A059B801A994110D31046194622466A
:1014D00000F016F8361A8F410197224601200021AC
:1014E000009F00F00DF838184D4100902046641E12
:1014F0000028DFDC019B00982946324607B0F0BD8A
:1015000010B5202A04DB0146203A9140002010BD8E
:10151000914020239C1A0346E3401943904010BD9C
:1015200010B5202A06DBCB170846203A1041C11718
:101530000B4306E00B461341D0402024A21A9140F1
:101540000843194610BD3A2800D2303820230246FD
:101550009A43412A01D310463738884201D30020EC
:10156000C0437047026813785118016018467047ED
:1015700010B5D16004495161044911620021116123
:10158000114600F079F910BD651500006B180000D8
:101590004268002A08D001680B78491C002B03D050
:1015A000521E06C0184670470121C160881E704750
:1015B0004268002A0BD0C3680168002B07D18368FA
:1015C0008B4204D0491E521C06C0002070470020E8
:1015D000C0437047004870473C0100100348704703
:1015E0000248001D011F8860001D70474001001067
:1015F000F8B50646FFF7EEFF0090054615E0002E11
:1016000002D0E068B0420FD1206828600098A1683D
:10161000076860688847204601F0D6FD009800689A
:10162000B84202D00098E8E725462C68002CE6D1A5
:10163000F8BD002904DA401C490001D140084000EF
:10164000704770B40024050C05D11024000402D1A9
:10165000002921D01124050E01D100020834050F04
:1016600001D10001241D850F01D18000A41C002898
:1016700001DB4000641C002908D020252E1B0D46EC
:10168000F540A14000D001212943084301061B1B5E
:10169000000ADB1D02D5002070BC7047DB0518185E
:1016A00080180029F8DA401C4900F5D170BC4008C8
:1016B0004000704710B5002B08DA0024401C61413F
:1016C00092185B411A4301D14008400010BDF0B5AB
:1016D0001FB482B005460C0003D0084600F0FCFEA3
:1016E00002E000F0F9FE2030024600902146284634
:1016F000FFF706FF049B059A04460F461843114363
:10170000084314D0184610431BD0009840210A1AF1
:101710001846059900F098F805460E46009A059976
:101720000498FFF7EDFE084305D0012004E02046B1
:10173000394607B0F0BD0020C11705430E432C43C6
:10174000374300990E986305401A7905E40A002290
:101750000C43FD0A0A3002D500200146E9E70105E5
:10176000101969410C9C0D9D00196941FFF7A2FFFA
:10177000DFE700004A0009030123090B1B05194399
:101780000A4B10B5520D9A4202DA0020014610BDF4
:10179000064B34339A4203DC9A1A00F055F810BD18
:1017A000034BD218FFF7ACFE10BD0000FF03000092
:1017B000CDFBFFFF10B500F00EF80169002903D042
:1017C00000220261884701E080688047C046C04629
:1017D00010B5C046C04670B5FFF702FF0468054665
:1017E000002C15D1202001F0B5FE040012D00020FD
:1017F00009492C6003C4094921602071A060E060A0
:1018000007492061083C002901D000F0D2F9E061CD
:10181000204670BDC046C04600000000D117000041
:1018200000000000064C0125064E05E0E36807CCE9
:101830002B430C3C98471034B442F7D3FEF7E4FC3A
:10184000AC460000CC46000010B5202A04DB084658
:10185000203AD040002110BD0B46D340D040202478
:10186000A21A91400843194610BD10B50F21C0B20D
:10187000490200F0BFF910BDF3B58DB000200A9009
:1018800001200B90002608460C300C460990626936
:10189000012109989047051E2ED0252D2DD0216AB3
:1018A0008847002818D06269012109989047216A69
:1018B00088470028F7D1411E62690998904700E0E7
:1018C000761CA1690D988847216A88470028F7D1BE
:1018D000E1690D988847DAE7A1690D9888470746BE
:1018E000A84201D1761CD2E7E1690D9888477F1C98
:1018F00002D10A98002877D049E1002762693D4665
:101900003946099890472A280CD162690121099823
:101910009047012506E00A214F433F18303FEBD4A2
:10192000102005436269012109989047014630392A
:101930000A2903D29B498F42DEDCECE7E90600D49A
:10194000994F6C280AD04C2810D0682824D06A28D7
:101950002ED074280CD07A280AD00DE062690121BB
:10196000099890476C2823D004211CE020200543CF
:101970006269012109989047A760656065284FD08A
:1019800026DC582839D01ADC452849D012DC252815
:1019900034D04128B0D143E06269012109989047D1
:1019A000682802D008210D43E6E70120C002DEE7E7
:1019B0000220DCE7462833D047282CD130E05B28D2
:1019C00070D061282CD063286CD0642823D161E0CA
:1019D0006F284FD009DC662822D0672820D06928DC
:1019E00026D06E2817D12EE0CDE070284DD0732878
:1019F0006FD075284ED078280DD154E0A1690D988C
:101A000088470546252800D16CE7E1690D9888478D
:101A10006D1C00D16DE7BAE00A224CE00A2252E0C8
:101A2000012023466A46C0430D99C046C046A3E044
:101A30002846402108436060A807234601D50022BC
:101A400039E000223FE0E80700D020E72068011DD0
:101A500021600068290501D5067018E7290701D51E
:101A6000068014E7A90703D5F117066041600EE769
:101A700006600CE72846402108436060A80723461B
:101A800001D5082217E008221DE0484928460840F1
:101A9000606016E02846402108436060A80723469E
:101AA000BCD5B9E715E02846402108436060A80787
:101AB00007D5234610220120C0430D99C046C046D9
:101AC0005AE0234610220120C0430D99FFF718F970
:101AD00052E000210C910B460091632802D05B2854
:101AE00007D043E0E80601D40120A0600120009067
:101AF0003CE062690121099890475E2805D10120E8
:101B00000C9001466269099890472169002906D125
:101B10000B4601AA8F00491CD3510829FADB002883
:101B200035D0216900290ED1C117C90E09184A11F3
:101B3000930001AA9A1849094901411A0120136822
:101B400088400343136062690121099890475D282A
:101B5000E5D10C98002808D0002001AB81005A582C
:101B6000401CD2435A500828F8DB01AB0120224622
:101B7000C0430D99C046C04600280ADA401C06D171
:101B80000B98002803D00020C0430FB0F0BD0A9886
:101B9000FBE7E90702D10A99491C0A91361800208F
:101BA0000B9074E6CCCCCC0CFFFFFF7FF1F7FFFF6E
:101BB000704710B5882001F0CDFC002801D000212D
:101BC000017010BD802904D8002802D001780029B6
:101BD00001D00020704701210170083070470028B3
:101BE00003D002460832914201D000207047002104
:101BF000017070477F2801D9002207E0054B420899
:101C00009A5CC00700D112091207120F0120904000
:101C1000084070479444000010B501F0C4FD01F085
:101C2000C1FDFEF74CFC10BD10B5002100F061F9BC
:101C300010BD0000F0B484460E48026893070E4AB7
:101C40009B0F1768012B0ED000252B463A469C00AF
:101C50002E59165166197668A41866609B1C302BA5
:101C6000F5DB0122026060468000C0190164F0BC0F
:101C700070470000008004400C01001070B413484D
:101C80000024046001234360446043604168C90745
:101C9000FCD00F4923228A600E4A956B8026B543FB
:101CA0009563CA68D207FCD0032101634363446390
:101CB0004363416BC907FCD0836307480168012275
:101CC00012041143016070BC704700004080044062
:101CD00000800440008204408080044010B5044627
:101CE0002046B43000F0E8F80446B43C583800F020
:101CF000E3F804465C3C583800F0DEF8041F204648
:101D000010BD70B504460D46002020606060A060E4
:101D1000E0602946204601F0F9FA204670BD70B512
:101D200004460D4600BF29462046FEF786FD00BF4B
:101D3000204670BD70B4084901600021074A102395
:101D40000D468C001659864200D11551491C5B1E68
:101D5000F7D170BC70470000DC440000F4050010AF
:101D600010B50C46001D01F04FFF204610BD1C228F
:101D7000514310B508180C3000F0AAF810BD00004F
:101D800070B50E460E490160002141608160154624
:101D900002231C220B490C3000F0B5FB04464B20FB
:101DA0000C3CC00160642A463146201D01F0B8FE9B
:101DB00022460549201D01F01DFF204670BD000090
:101DC00008450000291C00006F1D0000016889689B
:101DD000084710B50246001D01F05AFF10BD10B5AE
:101DE000001D01F0C1FF10BD10B50446054820607C
:101DF00000206060A060E060034801F0D5FF20464D
:101E000010BD000018450000CD1D000010B50446AF
:101E100003482060201D01F0A7FF204610BD0000F0
:101E20001845000010B5002906D0012905D0022967
:101E300002D13C3000F04CF810BD2030FAE7000031
:101E400010B504460420205E401C04D12A22054916
:101E5000054801F0B5FBA0680068002800D001200B
:101E600010BD0000B04200009842000070B50D4661
:101E70000F490160002141608160C16001614161E1
:101E80008161C161203000F034F800211C3000F085
:101E900030F83C3804460346064A2946143001F01F
:101EA00077FA2946201D01F01FFA204670BD000078
:101EB0002C450000251E000010B504460348206094
:101EC0002046143001F05CFA204610BD2C4500007D
:101ED0000168002900D008474368002B04D0014660
:101EE000826908311846104770470160002141603F
:101EF00070470022426082610160704710B5002186
:101F0000C046C04610BD0000F0B589B09E4694465C
:101F1000044624480F9F109E139D199B0E9A206023
:101F2000684601806146418071468180C280078198
:101F30004681119981811299C1810582149941824A
:101F4000159981821699C182179901831899418345
:101F500083831A99C183002005466E4660646F0032
:101F6000F05F401C0CD0102000F064FA0890F15F84
:101F70000022026042608260C26001F0B5F90898F8
:101F8000A90009194860F05F401C04D00120616C71
:101F9000A840014361646D1C102DE0DB204609B0B0
:101FA000F0BD00003C45000070B505460748002420
:101FB0002860A00040194068002801D000F035FAE0
:101FC000641C102CF5DB284670BD00003C45000069
:101FD000F3B581B007460025A800C0194468002C5D
:101FE0001ED002982841C6070020205EF60F401C34
:101FF00004D121220D490E4801F0E2FA20880005A3
:10200000000F002E06D0E1680B68012282401343C6
:102010000B6005E0E2681368012181408B43136087
:102020006D1C102DD8DB03B0F0BD0000E0410000B6
:10203000C8410000F0B589B09E4694460446244845
:102040000F9F109E139D199B0E9A20606846018079
:102050006146418071468180C28007814681119925
:1020600081811299C18105821499418215998182D9
:102070001699C182179901831899418383831A990C
:10208000C183002005466E4660646F00F05F401C0F
:102090000CD0102000F0CEF90890F15F0022026011
:1020A00042608260C26001F031F90898A900091904
:1020B0004860F05F401C04D00120616CA8400143DF
:1020C00061646D1C102DE0DB204609B0F0BD0000FE
:1020D0004C45000070B50546074800242860A00064
:1020E00040194068002801D000F09FF9641C102CB2
:1020F000F5DB284670BD00004C45000010B50446D5
:10210000FFF766FF204610BD10B51C46FFF738FEEE
:102110002146483000F02CF8483803490160034953
:10212000C1640349816410BD5C450000A8450000FE
:102130007445000010B5483000F03CF8483810BD38
:102140000020704700207047F8B58E180D460746EE
:102150000C46B14209D038682178426A641C38467E
:102160009047401C01D0B442F5D1601BF8BD00007F
:1021700010B584B000F0CEF804460A4820600A4842
:10218000606000206061224608A1684600F084F982
:1021900007A1684600F0F7F96061FFF7AFFE20463F
:1021A00004B010BDB8450000EC4500003A257000B1
:1021B000772B000010B50446054820600548606094
:1021C000606900F0C5F9204600F0B6F810BD0000C7
:1021D000B8450000EC45000070B50D460446FFF719
:1021E000FEFD256101F092FD216941182046FFF7AF
:1021F000F0FD70BD10B50446FFF7F1FD204600214B
:102200001430FFF772FE10BD10B504464068216916
:1022100041182046FFF7DDFD20461430FFF758FE39
:1022200010BD000010B504462046FFF7DDFD044652
:1022300005480021206020461430FFF75AFE04466E
:10224000143C204610BD0000FC45000010B50446BB
:10225000064820602046FFF7C2FD204600211430CA
:10226000FFF743FE2046FFF7D1FD10BDFC450000FF
:1022700010B51430FFF72CFE10BD007B7047000036
:1022800070B506460C480D460468002C12D0A068B4
:1022900000280CD02A463146FEF704FD002806D15E
:1022A000A068FEF71AF8A84201D1204670BD646804
:1022B000002CECD1002070BD30010010064B0360F3
:1022C0000023436081600273002903D003490A6838
:1022D0004260086070470000244600003001001092
:1022E0000A4901608168002905D0094A11688142C4
:1022F00002D14168116070474A68824203D011469A
:1023000052688242FBD142684A607047244600000E
:102310003001001010B5054A04C00022FFF7CEFFBF
:10232000001F034901600349416010BDDC44000007
:10233000344600006046000010B5001DFFF7D0FFD6
:10234000001FFFF7F7FC10BD10B5044640680028D9
:1023500003D0FFF792FF012801D0002010BD606874
:1023600010BD10B504464068002803D0FFF785FF74
:10237000002801D0002010BD60680028FBD0001F9D
:1023800010BD4068002800D00120704710B540689B
:10239000002804D0FFF771FF002801D0002010BDF5
:1023A000012010BD0068704710B504460020206071
:1023B000606008782F280FD1487800280CD04B1C7B
:1023C00000211A46236010782F2807D0002807D054
:1023D000491C521C2260F6E7204610BD501C2060AC
:1023E0001846FFF74DFF6060204610BD70B50446EB
:1023F0002546264644363046FFF728FF0546443D2D
:102400003038FFF723FF0446143C204670BD70B5FA
:1024100004460D4629462046FEF74AFA204670BD7E
:1024200010B54838FFF79CFC10BD10B500F0CCFE8D
:1024300010BD000010B5040008D1012406E0FFF72C
:10244000CDF80068002800D103488047204601F0FD
:1024500081F80028F3D010BD991400000FB410B516
:10246000024604A9034B039800F092F910BC08BC83
:1024700004B018475D0200000FB410B503A9044B67
:10248000044A029800F084F910BC08BC04B0184754
:102490005D020000DC0600100FB410B504A9074B64
:1024A00002AA039800F074F9044602A9002000F083
:1024B0000BFD204610BC08BC04B01847C92E000014
:1024C00070B514460D460246024B2146284600F0E0
:1024D0005FF970BD5D0200002021020C01D01021C7
:1024E0001046020A01D010460839020901D01046F0
:1024F000091F820801D01046891E420801D0881E9B
:102500007047081A7047FFB581B01C4617460E0089
:1025100007D0019D02E02846B047ED192046641E11
:10252000F9D2019805B0F0BD10B50020C046C046F4
:1025300010BD02E008C8121F08C1002AFAD1704776
:102540007047002001E001C1121F002AFBD1704733
:1025500010B50446006800F0BDFC002802DA002037
:10256000C04310BD204600F02FFE002010BD10B566
:10257000C168006800F036FD002802DA0020C04380
:1025800010BD002010BD70B506460D46142000F0A9
:10259000E1FF04000AD01421FEF76BFB2246294616
:1025A000304600F0C5F8050002D004E0002070BD00
:1025B000204600F009FE284670BD0000F0B51FB4AB
:1025C00086B00998089A030D0021024314D051489F
:1025D000514A1818504305141198012810981AD020
:1025E000281A401C00264D4F4D4900960191049039
:1025F000002812DA444211E01198012449A301286D
:1026000001D11098C1430698119A84600360C2609A
:1026100041600BB0F0BD4042E4E7044621050020D4
:102620003F4A001C51410391029012E0E00707D09D
:1026300032463B4601990098FEF7B4FD01910090A7
:1026400032463B4610461946FEF7ACFD06460F469D
:102650006410002CEAD10498039B0028029A09997F
:10266000089806DAFEF79EFD019B009AFEF79AFD98
:1026700005E0FEF7FFFD019B009AFEF7FBFD044617
:102680000E460022284BFEF7CDFE03D80020C043A3
:10269000014607E00022254B20463146FEF7D0FCDC
:1026A000FFF768F8102409E0002C0ADB0A22002357
:1026B000FEF7F6FE079B30321A55641E02460A43A7
:1026C000F2D11122641C079B121B1C19119B012BB8
:1026D00003D0012308430ED10AE0084304D011209F
:1026E00010900020119077E71098151A6D1E0BE0DE
:1026F0001098824202DD00236D1C03E0824201DA61
:1027000000236D1E002BEED0069811998260C160E7
:1027100030C07EE701FCFFFF104D000000001440B8
:102720000000F03F300000000000F0430000E03FF8
:1027300070B50646106815460C46002801D000F01A
:10274000C9FB2078641C612808D0722802D0772841
:102750001CD101E0002102E0042100E00821022256
:1027600001232078002809D0641C2B2802D062287D
:102770000CD101E01143F4E71943F2E7304600F0D1
:10278000BFFB411C02D02860284670BD002070BDF0
:10279000FFB597B00646002518E2252877D100241A
:1027A0002746FD49049400E00443761C327801205A
:1027B000203A90400842F7D130782A280ED00222E1
:1027C000307801463039092916D804990A2359432B
:1027D000303940181443761C0490F1E7189802C869
:1027E00004911890002904DA012040030443484270
:1027F000049002200443761C30782E2814D1042043
:1028000004437078761C2A2809D11898761C80C851
:10281000189009E00A214F43303FC719761C3078E1
:10282000014630390929F5D930786C2810D006DCFA
:102830004C281AD068280ED06A2817D104E07428D2
:1028400013D07A2812D110E00120400504430CE097
:102850000121090501E0032109050C43717881423A
:1028600003D1012000052418761C761C30781190C5
:1028700066280BD013DC58287DD009DC00287BD0DB
:102880004528F6D04628F4D047281AD1A5E118E00B
:10289000632835D0642870D0652812D19DE1702856
:1028A0006CD008DC6728F1D069287BD06E280DD069
:1028B0006F2806D1BAE073282ED0752871D07828F9
:1028C00059D01A9A199990476D1C7EE16002400F09
:1028D000022809D003280DD00428189801680DD0CB
:1028E0000D60001D189070E11898EA1701680D60DE
:1028F0004A60F6E7189801680D80F2E70D70F0E77E
:1029000018986A4601781172001D189000205072C4
:1029100002A80090012005E0189802C81890002035
:102920000091C04361070DD5002101E00199491CC8
:102930000191B94212DA8142F8DB009A515C002918
:10294000F4D10BE0002101E00199491C0191814281
:10295000FADB019A0099895C0029F5D10199049864
:102960001A9B471A21463846199A00F097FA01999E
:10297000401945180BE04FE02CE113E04EE00098C1
:1029800000990078491C00911A9A1999904701986A
:10299000401E0190401CF2D1214638461A9B199ADC
:1029A00010E137E00A200021009001916002410F00
:1029B000022907D0189A01CA1892C217944603290F
:1029C00008D00AE01898C01DC108C90005C91891AF
:1029D000944607E000B2C2179446042902D140B2DF
:1029E000C1178C4600226146944506DA0A4600214A
:1029F000404291418C462D2102E0210504D52B2136
:102A00006A461173012103E0E10701D02021F7E7B5
:102A1000029155E00A200AE0102008E01020009002
:102A20000021042004430191082703E0082000212D
:102A3000019100906002410F022907D0189A01CA43
:102A4000189200229446032908D008E01898C01D67
:102A5000C108C90005C91891944603E080B2042951
:102A600000D1C0B200210291210729D51199702906
:102A700006D0009A1021019B4A401A4305D00EE06F
:102A800040216A461173012108E06146014306D0E6
:102A900030216A4611731199517302210291009AF3
:102AA0000821019B4A401A430AD16146014301D1E2
:102AB000610705D530216A46117301217F1E0291FD
:102AC0001199582904D035A10E910DA90D910DE051
:102AD00037A1F9E76146019B009AFEF7E1FC0E9BE6
:102AE0008C469B5C0D9A521E0D92137061460143F9
:102AF000F0D10D9805A9081A20300190600703D580
:102B000001200004844300E001270198874201DD91
:102B1000381A00E000200199009041180298091825
:102B20000498401A0490E00306D421461A9B199A8F
:102B3000049800F0B3F94519002706E003A81A9A93
:102B4000C05D199990476D1C7F1C02988742F5DB88
:102B5000E0030CD521461A9B199A049800F09EF9BF
:102B6000451904E01A9A3020199990476D1C009974
:102B7000481E00900029F5DC08E00D980D990078BA
:102B8000491C0D911A9A199990476D1C0199481E7C
:102B900001900029F1DC63E1092801003031323372
:102BA0003435363738396162636465660000000089
:102BB0003031323334353637383941424344454673
:102BC0000000000000F05AF94519761C3078002802
:102BD00000D0E2E528461BB0F0BD600700D4062710
:102BE0001898C01DC108C90048680A680831C30F99
:102BF000DB071891190001D09CA108E0210501D53F
:102C00009BA104E0E10701D09AA100E09AA1430052
:102C100011985B08109165280CD006DC452809D076
:102C200046281DD0472841D141E0662818D06728A2
:102C30003CD13CE00021112F01DB112000E0781C89
:102C40000191009008A911A8FFF7B8FC139905910C
:102C50000021119A15927F1C12980197009150E063
:102C60000120C00703900120019008A9009711A836
:102C7000FFF7A4FC139A149905920022119B00926D
:102C800012981593059A0192002901D0104602E08E
:102C9000791C40180190381A01D5019804E040428F
:102CA000401E0090781C0190C01B029043E0012F51
:102CB00000DA01270021112F01DD112000E0384644
:102CC0000191009008A911A8FFF778FC13990591CC
:102CD000119A0021129815920091019721070CD4A6
:102CE0000599B94201DB019900E00191012904DD58
:102CF000159A491E515C302906D0B84201DA011DEF
:102D000005DA0121029115E00199491EEDE700283D
:102D100005DC0099411800910199091A03E0019A14
:102D2000411C914200DD01910099401A401C029023
:102D30000120C0070390200706D402990198814220
:102D400002DB0020C043029000206946C87707AF2D
:102D5000012103980337C907884224D0022011902B
:102D60002B201290039800280CDA404203902D206B
:102D7000129007E00A210398FDF785FA30317F1E93
:102D8000039039701199481E11900029F2DC0398C4
:102D90000028EFD1791E1298087030782021084061
:102DA0004530BF1E387006A8C01BC01D0390109888
:102DB0000078002800D00120019941180298C0171E
:102DC0000918039809180498401A401E0490E0035B
:102DD00006D421461A9B199A049800F05FF8451909
:102DE00010980078002803D01A9A199990476D1C02
:102DF000E00324D521461A9B199A049800F04EF856
:102E000045191CE00098002807DB009905988842C6
:102E100003DD1598405C199901E0199930201A9A40
:102E2000904700986D1C401C00900298401E029034
:102E3000002804D11A9A2E20199990476D1C0199E7
:102E4000481E01900029DDDC05E038781A9A7F1CC5
:102E5000199990476D1C0399481E03900029F4DCD2
:102E600021461A9B199A0498ACE600002D00000038
:102E70002B0000002000000000000000F8B5044610
:102E800000251E461746880404D405E03946202054
:102E9000B0476D1C641EF9D52846F8BDFFB5044641
:102EA000002581B01E46C80301D5302700E0202749
:102EB000880404D505E038460399B0476D1C641EAC
:102EC000F9D5284605B0F0BD0A68531C0B60107098
:102ED00070470000032801DA00207047810007488E
:102EE000002209184039486B4A63002802D0016863
:102EF000496808470020C04370470000F4050010EF
:102F0000F0B50E4683B0044632A1FDF7BDFE0028A1
:102F100009D0314F0025A8003858002809D06D1C71
:102F2000102DF8D351E02D490868421C0A6003B007
:102F3000F0BD102D49D220783A2811D0214668469C
:102F4000FFF732FA6846FFF71CFA00283DD06846C2
:102F5000FFF71CFA0028684609D0FFF702FA2DE0B7
:102F60006A461FA12046FDF7ADFE009826E0FFF758
:102F7000EBF9002829D0B10701D5022408E0710738
:102F800001D5012404E0310701D5092400E0002423
:102F90003107890F02D0012149020C43710702D584
:102FA000012189020C43264604466846FFF7FAF9D8
:102FB000014620683246836820469847002804D09E
:102FC000A9007850E81C03B0F0BD0020C04303B056
:102FD000F0BD00003A747400F40500100801001000
:102FE0003A257000032801DA00207047064A800065
:102FF00080184038406B002803D002681369002213
:1030000018470020C0437047F405001070B51446FF
:103010000E46032814DA12480068002804D1114A29
:103020001149124800F07CFD0025002C06D9715D85
:103030000E4800F0E9FD6D1CA542F8D320460AE0D9
:103040000B49800040184038406B002805D00168CB
:103050000B6831469847201A70BD0020C04370BDF0
:103060001C010010A4160000A81700002401001085
:10307000F405001070B50C4605461349204600F0D3
:10308000FBFB28701148816B10229143816310482B
:1030900001685202114301600E49E0B24018016814
:1030A0008022914301600C480C4900684A1E801838
:1030B000FDF7FFF8401E0A49000208600249204659
:1030C00000F008FC70BD0000FC3F000000820440DE
:1030D00080800440004004401001001020AA4400F9
:1030E00000C00140F0B429490A68120A12020A60BD
:1030F0000A68047801273B46A3401A430A600A681D
:103100003B061A430A604A68002AFCDA0C689C43B2
:103110000C6012040C68920D240A24020C600D68E5
:1031200006783C46B44025430D600C681C430C6097
:103130004C68002CFCDA0D689D430D6024040D687A
:10314000A40D2D0A2D020D600D68007887403D43C7
:103150000D6008681843086048680028FCDA0D68AC
:103160009D430D600004800DA24202D91146224603
:103170000C46844200D90446A24200D91446A0015C
:10318000A105F0BC890E08437047000000C0014053
:103190000FB410B503AA03480299FFF791F9012073
:1031A00000F002F8F006001004460548FFF7DFF9CA
:1031B0000448FFF7DCF9002C01D000F029FAFEE703
:1031C000DC060010F006001010B5002823D0124BCA
:1031D0000022001F196803E0814203D80A464968AB
:1031E0000029F9D1002A0AD01368841A9C4204D11C
:1031F000006818181060104602E0506000E0186087
:10320000002907D002680B1A934203D10B68D21829
:1032100002604968416010BD4C01001070B5044661
:103220000020205E0D46401C04D138220B490CA022
:1032300000F0C6F920880005020F0120002D07D0FC
:10324000012D04D1A1680B68904003430B6070BD51
:10325000A1680B6890408343F8E70000BC4300007E
:103260006F626A2D3E70696E20213D202850696E84
:103270004E616D65294E430070B505460180481CBE
:1032800029D00804000F0522000412078618002028
:103290000C460C290CD010498C4209D00F498C42A5
:1032A00006D00F498C4203D02521C9018C4200D1A0
:1032B00001200146204600F077FA2005000F012189
:1032C00081408800801968600120C0033018A86020
:1032D00004483018E86070BD740B000078100000DE
:1032E0007C110000FC3F000070B5012605460C462D
:1032F000FFF7C2FF611C07D000212846FFF78EFFB1
:103300003146284600F0CBF870BD000070B50D4680
:1033100004460026FFF7B0FF6D1C18D0A05F401CCC
:1033200004D121220A490B4800F04AF920880005FF
:10333000010FE068026801238B409A43026001217B
:103340002046FFF76BFF3146204600F0A8F870BD1D
:10335000384300002043000010B5002000F0A6F81C
:1033600010BD10B5012000F0A1F810BD10B502206D
:1033700000F09CF810BD10B5032000F097F810BDC8
:1033800000680021014A8000115070473406001087
:10339000FFB507460C461C4881B0491C1DD01B498F
:1033A000BC800A6021041A4E0D0F18D0012D1DD0CB
:1033B000022D22D0032D10D116491C20FEF73AFC15
:1033C000300530600C2045432005000F2818124BB3
:1033D0008200049999503860002005B0F0BD0F4973
:1033E0001F20FEF727FC0120C007EAE70C491E203A
:1033F000FEF720FC01208007E3E70A491D20FEF7C5
:1034000019FC01204007DCE7FFFFFFFF140100105B
:1034100000E100E07733000034060010593300006B
:10342000633300006D33000010B483880524180452
:10343000000F0004240700191B051C0F0123A340E3
:103440000124E4030019C4691C43C46144689C431B
:10345000446004691C4214D0002A03D081681943D7
:10346000816007E082689A4382600129C16806D0C2
:103470001943C16001691943016110BC7047994348
:10348000F7E784689C4384600129C16805D09943AB
:10349000C160002AEED110BC70471943F8E710B59F
:1034A00002460020105E00F0A3F910BD052270B5A1
:1034B000010412078B180121C9035C18A1691F4A76
:1034C000491E0D4649081540114069181C4A0D4611
:1034D00089081540114069181A4A0D460909154016
:1034E00011406918184A0D46090A1540114069181B
:1034F0008AB2090C51180C225043A5690818A1681A
:10350000134A0D42114912680BD0FF25AD015B191A
:10351000DB6BA5692B4208D10BE09047A069E06105
:1035200070BDA369E5682B4203D0800008580121D3
:10353000F3E7800008580221EFE700005555555584
:10354000333333330F0F0F0FFF00FF00340600102B
:1035500014010010F0B50B30C108C900144F00264B
:10356000144A0FE003688B420BD38B4205D95C1AD7
:103570004318456830C3083B00E04368136002C04D
:1035800004E0021D10680028ECD13046002803D169
:103590003868002801D00020F0BD064A06481060B7
:1035A000064A121AD208D20044C001203860D7E778
:1035B000500100104C0100100C070010080700100B
:1035C00008B500920B46024603A11048FEF746FFDD
:1035D00000F01EF808BD00006D6265642061737321
:1035E0006572746174696F6E206661696C65643AB6
:1035F0002025732C2066696C653A2025732C206C7D
:10360000696E65202564200A00000000F0060010A5
:1036100090B072B6AD24640121466846FFF776FE8D
:1036200075252D01294604A8FFF770FE214608A83C
:10363000FFF76CFE29460CA8FFF768FE01256946D6
:103640000020085E401C04D1212254495448FFF751
:10365000B7FF69460888039900050968000F2A46E4
:10366000824003981143016069461020085E401CA7
:1036700004D1212249494A48FFF7A2FF6846008A3F
:10368000079900050968000F2A4682400798914370
:10369000016068462021415E491C04D121223F4936
:1036A0003F48FFF78DFF6846008C0B9900050968BD
:1036B000000F2A4682400B989143016068463021F2
:1036C000415E491C04D1212234493548FFF778FF77
:1036D0006846008E0F9900050968000F2A4682404F
:1036E0000F9811430160962000F084FB684600218A
:1036F000415E491C04D1212228492948FFF760FF77
:1037000068460088039900050968000F2A46824030
:1037100003989143016068461021415E491C04D121
:1037200021221E491E48FFF74BFF6846008A079971
:1037300000050968000F2A468240079811432C466D
:10374000016068462021415E491C04D121221349B1
:103750001348FFF735FF6846008C0B990005096890
:10376000000F224682400B981143016068463021C9
:10377000415E491C04D1212208490948FFF720FF76
:103780006846008E0F9900050968000F84400F9865
:10379000A1430160962000F02DFB50E78C3F000014
:1037A000743F00007047704770B504460D46401CDA
:1037B00004D11522074908A0FFF702FF0B49E0B228
:1037C000401801686A07C908C900520F1143016017
:1037D00070BD00002844000070696E20213D202843
:1037E00050696E4E616D65294E43000000400440F3
:1037F00070B504460D46401C04D11E220A490BA098
:10380000FFF7DEFE69070E4AE0B2C90F83181A6897
:1038100018208243A807C00E104301229202904351
:1038200089020143196070BD2844000070696E2050
:10383000213D202850696E4E616D65294E43000080
:1038400000400440884202D0421C01D10846704723
:1038500010B5491C04D003A0FFF79AFC0020C04318
:1038600010BD000070696E6D6170206D69732D6D03
:103870006174636800000000002210B5D243431C4D
:103880000BD00023CB5E5B1C0ED00023CB5E8342AB
:1038900005D14C68601C08D00AE0104610BD0C3100
:1038A0000023CB5E5B1CF0D1144602A0FFF770FC36
:1038B000204610BD70696E6D6170206E6F74206659
:1038C0006F756E6420666F722070657269706865CE
:1038D00072616C0010B50446401C0FD00020085ED9
:1038E000401C11D00020085EA04208D18968204603
:1038F000FFF75AFF00212046FFF77AFF10BD0C3179
:103900000020085E401CEDD101A0FFF741FC10BD76
:10391000636F756C64206E6F742070696E6F757460
:1039200000000000F3B543498BB001208861424894
:10393000006801900C9801010198FCF7A4FC80B28A
:10394000069000200990012000270790002953D0FD
:103950000C9801240025049002E00025002C45D994
:103960000198604340000ED50C9829194143019AF3
:1039700060005043FCF787FC0009C1030120C0032D
:103980000818060C0DE00C9829194143019AA00073
:103990005043FCF778FC4009C1030120C00308181C
:1039A000060C002E00D10126002D02D0022E00D2DE
:1039B000022628197043C10001986043FCF763FC9C
:1039C000401C0C994008401A00D540420499884296
:1039D00008DA07940C99099506960490884201D15B
:1039E000012703E06D1CEDB2A542B9D3641CE4B21B
:1039F000102C01D2002FB0D00B980068C268802133
:103A00000A43C2600698020A0B9800684260069852
:103A1000C2B20B98006802600798099A000110432F
:103A20000B9A126890620B980068C2688A43C26061
:103A30000DB0F0BD8080044010010010F8B51D46A7
:103A400014460F460646012B06D0022D04D0BC2298
:103A50001E491FA0FFF7B4FD042F01DD092F04DB71
:103A6000BD221A4924A0FFF7ABFD002C0CD0012C7D
:103A70000AD0022C08D0032C06D0042C04D0BE227D
:103A800012492648FFF79CFD681E7F1F052C14D2A3
:103A900023007B441B79DB189F440204070A0D00B6
:103AA000002500E00125002407E001252C4604E064
:103AB0000125022401E00125032480003843E900A8
:103AC0000843210108433168C860F8BDD4400000B4
:103AD0002873746F705F62697473203D3D203129D3
:103AE000207C7C202873746F705F62697473203D42
:103AF0003D2032290000000028646174615F626922
:103B00007473203E203429202626202864617461A5
:103B10005F62697473203C20392900004441000031
:103B2000F7B5044628490198FFF7A6FE0546274940
:103B30000298FFF7A1FE01462846FFF783FE0546DF
:103B4000401C04D13C22224922A0FFF739FD254820
:103B500025600168012212031143016020680126DB
:103B600086602068002747604B21C9012046FFF787
:103B7000D9FE0123002208212046FFF75FFF1249EA
:103B80000198FFF7A7FE11490298FFF7A3FE0198DD
:103B9000401C03D002210198FFF72AFE0298401C26
:103BA00003D002210298FFF723FE0F48281800D106
:103BB00067600E48854205D10D48466062682168FD
:103BC0000261C16003B0F0BD5C400000984000009D
:103BD000D440000028696E74297561727420213DFB
:103BE000204E4300808004400080FFBF00800040E2
:103BF00018010010034B99604068194680000A5074
:103C000070470000180100100068202342691A4222
:103C1000FCD0016070470000014901200860704736
:103C200000800140024841694908490041617047EC
:103C3000008001400F48016800291AD170B50125A4
:103C400005600D4801680215114301600B480C4CDA
:103C50000068022161600B49FCF715FB401EE06023
:103C6000656009491320FDF7E5FF0849E80408608D
:103C700070BD70472C0100108080044010010010BE
:103C80000080014040420F00CD3C000000E100E018
:103C900070B5054672B642600B4A01601468002098
:103CA000002C0CD02368CB1A03D42046A468002C27
:103CB000F8D1002803D08560AC6062B670BD0846BC
:103CC000156000F07BF8F7E73401001010B5FFF73E
:103CD000A3FF0D4C206800280ED000F017F82168D3
:103CE0000A68101A00280ADC886820606268002AC6
:103CF000F0D048689047EDE7FFF794FF10BD0868E3
:103D000000F05CF810BD00003401001070B50F48E1
:103D10000F4C0168002917D1012505600D48016885
:103D20000215114301600C480221006861600B49D3
:103D3000FCF7A9FA401EE060656009491320FDF711
:103D400079FF0849E8040860A06870BD2C010010E4
:103D500000800140808004401001001040420F00AC
:103D6000CD3C000000E100E010B572B60D4A1168CC
:103D700081420AD180681060002803D0006800F0FA
:103D80001DF80CE0FFF74EFF09E0002907D08A6814
:103D9000824202D18068886001E01100F7D162B6EA
:103DA00010BD00003401001010B50446FFF742FFBB
:103DB0000148446010BD00003401001003498861CF
:103DC00048690122104348617047000000800140AB
:103DD00070B50749FDF7B8F8FDF7CFFA0446FFF7CD
:103DE00095FF0546FFF792FF401BA042FAD370BD36
:103DF0000024744970B57D21C90048430446FFF78B
:103E000085FF0546FFF782FF401BA042FAD370BD35
:103E10007FB504460D46294620463C30039B029A56
:103E200000F068F80122022120461430FFF7FCFA66
:103E30007FBD7FB504460D46294620462030039BB2
:103E4000029A00F057F80122114620461430FFF77D
:103E5000EBFA7FBDF3B58BB004460A94082208A89C
:103E60000C99FCF7EDFE0999089801910090481013
:103E70000A9C0519089803910290C807C00F0028F2
:103E800004D1099908980591049006E009990898C9
:103E90000791069029684618306807462846B847B3
:103EA0000DB0F0BDF3B58BB004460A94082208A803
:103EB0000C99FCF7C5FE09990898019100904810EB
:103EC0000A9C0519089803910290C807C00F0028A2
:103ED00004D1099908980591049006E00999089879
:103EE0000791069029684618306807462846B84763
:103EF0000DB0F0BD0FB54160039B029AC3608260B4
:103F0000024A8261002202600FBD0000A53E00004F
:103F10007FB582B005460C460A9E28461430059AA5
:103F20000499019200914460019A0099C2608160F5
:103F3000054981610021016000BF31462846FEF736
:103F40004BF906B070BD0000553E00002D08000082
:103F500000000000FD070000000000002F0B000023
:103F6000000000002F0B000000000000230C0000E8
:103F7000000000006F626A2D3E70696E20213D20B6
:103F80002850696E4E616D65294E4300433A5C438B
:103F90006F64655C6769745F7265706F5C67697494
:103FA0006875625C6D6265642D6F666669636961E0
:103FB0006C5C6275696C645C6D6265645C544152F2
:103FC0004745545F4C5043313131345C5441524782
:103FD00045545F4E58505C5441524745545F4C50D5
:103FE00043313158585F31314358585C6770696FBD
:103FF0005F6F626A6563742E68000000740B0000D6
:104000000000000002000000781000000100000025
:10401000020000007C11000002000000020000000D
:104020008012000003000000020000009414000051
:1040300005000000010000006C1A000006000000EE
:1040400001000000981B00000700000001000000B4
:10405000FFFF0000FFFFFFFF00000000242800001A
:104060000080004002000000483500000080004051
:1040700002000000843000000080004003000000C7
:10408000A81700000080004001000000FFFF0000B2
:10409000FFFFFFFF0000000020270000008000401D
:1040A000020000003C3400000080004002000000DC
:1040B000883100000080004003000000A4160000CA
:1040C0000080004001000000FFFF0000FFFFFFFF35
:1040D00000000000433A5C436F64655C6769745F8D
:1040E0007265706F5C6769746875625C6D62656447
:1040F0002D6F6666696369616C5C6C69627261727E
:104100006965735C6D6265645C7461726765747324
:104110005C68616C5C5441524745545F4E58505C3A
:104120005441524745545F4C5043313158585F31E8
:10413000314358585C73657269616C5F6170692EB8
:104140006300000028706172697479203D3D205041
:1041500061726974794E6F6E6529207C7C202870AD
:104160006172697479203D3D205061726974794FA4
:10417000646429207C7C2028706172697479203DF8
:104180003D205061726974794576656E29207C7C8A
:104190002028706172697479203D3D2050617269F8
:1041A0007479466F726365643129207C7C202870A5
:1041B0006172697479203D3D20506172697479465D
:1041C0006F726365643029006F626A2D3E70696E9C
:1041D00020213D202850696E4E616D65294E4300B7
:1041E000433A5C436F64655C6769745F7265706FC6
:1041F0005C6769746875625C6D6265642D6F666684
:10420000696369616C5C6275696C645C6D6265644C
:104210005C5441524745545F4C5043313131345C1A
:104220005441524745545F4E58505C5441524745A3
:10423000545F4C5043313158585F31314358585CCA
:104240006770696F5F6F626A6563742E6800000053
:10425000433A5C436F64655C6769745F7265706F55
:104260005C6769746875625C6D6265642D6F666613
:10427000696369616C5C6C69627261726965735CC7
:104280006D6265645C636F6D6D6F6E5C4275734FDC
:1042900075742E63707000006F626A2D3E70696ED7
:1042A00020213D202850696E4E616D65294E4300E6
:1042B000433A5C436F64655C6769745F7265706FF5
:1042C0005C6769746875625C6D6265642D6F6666B3
:1042D000696369616C5C6275696C645C6D6265647C
:1042E0005C5441524745545F4C5043313131345C4A
:1042F0005441524745545F4E58505C5441524745D3
:10430000545F4C5043313158585F31314358585CF9
:104310006770696F5F6F626A6563742E6800000082
:104320006F626A2D3E70696E20213D202850696EB3
:104330004E616D65294E4300433A5C436F64655C92
:104340006769745F7265706F5C6769746875625CD9
:104350006D6265642D6F6666696369616C5C627528
:10436000696C645C6D6265645C5441524745545F9E
:104370004C5043313131345C5441524745545F4EC7
:1043800058505C5441524745545F4C50433131586A
:10439000585F31314358585C6770696F5F6F626A6C
:1043A0006563742E6800000070696E20213D20282E
:1043B00050696E4E616D65294E430000433A5C437F
:1043C0006F64655C6769745F7265706F5C67697460
:1043D0006875625C6D6265642D6F666669636961AC
:1043E0006C5C6C69627261726965735C6D62656454
:1043F0005C746172676574735C68616C5C54415293
:104400004745545F4E58505C5441524745545F4CA9
:104410005043313158585F31314358585C677069A7
:104420006F5F6170692E6300433A5C436F64655C43
:104430006769745F7265706F5C6769746875625CE8
:104440006D6265642D6F6666696369616C5C6C6939
:10445000627261726965735C6D6265645C746172DD
:10446000676574735C68616C5C5441524745545F86
:104470004E58505C5441524745545F4C5043313183
:1044800058585F31314358585C70696E6D61702EB9
:1044900063000000DDDDDDDDDCBBBBDDDDDDDDDDA2
:1044A000DDDDDDDD9888888888888888777777776C
:1044B0007788888885555556666666666666666638
:1044C00066688888833333322222222222222222E3
:1044D0002228888D0000000000000000292500002F
:1044E0002925000029250000292500002925000094
:1044F0002925000000000000351D0000000000001C
:1045000000000000000000000000000000000000AB
:1045100000000000000000000D1E00000000000070
:10452000292500000000000000000000B91E000066
:10453000000000000000000000000000A91F0000B3
:10454000000000000000000000000000D520000076
:104550000000000000000000000000003521000005
:10456000000000000000000000000000B8FFFFFF96
:10457000000000004921000041210000000000006F
:1045800000000000452100000000000000000000C5
:1045900000000000000000002124000000000000D6
:1045A000B4FFFFFF0000000000000000000000005A
:1045B000000000000000000049210000412100002F
:1045C0000000000000000000452100000000000085
:1045D00000000000B52100000000000029250000B7
:1045E00029250000FCFFFFFF000000000000000084
:1045F0000000000000000000000000004D2200004C
:10460000000000000922000000000000000000007F
:104610000000000000000000712200000000000007
:1046200000000000E1220000000000000000000087
:104630000000000029250000292500002925000090
:104640002925000029250000292500000000000080
:104650003923000000000000FCFFFFFF0000000005
:1046600000000000000000006D6265642F5441529C
:104670004745545F4C5043313131342F54415247F8
:1046800045545F4E58502F5441524745545F4C504B
:1046900043313158585F31314358582F6770696F33
:1046A0005F6F626A6563742E68000000D046000088
:1046B000C000001094000000322500006447000094
:1046C00054010010B40500004225000085BEFFFF24
:1046D0000000000000000000780000000000000062
:1046E00000000000000000000000000000000000CA
:1046F00000000000000000000000000000000000BA
:1047000000000000000000000000000000000000A9
:104710000000000000000000000000000000001089
:10472000006CDC020000000000000000000000003F
:104730000000000000000000000000000000000079
:104740000000000000000000000000000000000069
:104750000000000000000000000000000000000059
:044760000000000055
:0400000500000201F4
:00000001FF
