:020000040000FA
:10000000001000102102000033020000290200004D
:1000100000000000000000000000000000000000E0
:100020000000000000000000000000002B020000A3
:1000300000000000000000002D0200002F02000060
:1000400033020000330200003302000033020000DC
:1000500033020000330200003302000033020000CC
:1000600033020000330200003302000033020000BC
:1000700033020000330200003302000033020000AC
:10008000330200003302000033020000330200009C
:100090003302000033020000310200003102000090
:1000A000330200003302000033020000310200007E
:1000B000330200003302000033020000330200006C
:1000C000FFFFFFFFFFFFFFFFFFFFFFFFFFFFFFFF40
:1000D000FFFFFFFFFFFFFFFFFFFFFFFFFFFFFFFF30
:1000E000FFFFFFFFFFFFFFFFFFFFFFFFFFFFFFFF20
:1000F000FFFFFFFFFFFFFFFFFFFFFFFFFFFFFFFF10
:10010000FFFFFFFFFFFFFFFFFFFFFFFFFFFFFFFFFF
:10011000FFFFFFFFFFFFFFFFFFFFFFFFFFFFFFFFEF
:10012000FFFFFFFFFFFFFFFFFFFFFFFFFFFFFFFFDF
:10013000FFFFFFFFFFFFFFFFFFFFFFFFFFFFFFFFCF
:10014000FFFFFFFFFFFFFFFFFFFFFFFFFFFFFFFFBF
:10015000FFFFFFFFFFFFFFFFFFFFFFFFFFFFFFFFAF
:10016000FFFFFFFFFFFFFFFFFFFFFFFFFFFFFFFF9F
:10017000FFFFFFFFFFFFFFFFFFFFFFFFFFFFFFFF8F
:10018000FFFFFFFFFFFFFFFFFFFFFFFFFFFFFFFF7F
:10019000FFFFFFFFFFFFFFFFFFFFFFFFFFFFFFFF6F
:1001A000FFFFFFFFFFFFFFFFFFFFFFFFFFFFFFFF5F
:1001B000FFFFFFFFFFFFFFFFFFFFFFFFFFFFFFFF4F
:1001C000FFFFFFFFFFFFFFFFFFFFFFFFFFFFFFFF3F
:1001D000FFFFFFFFFFFFFFFFFFFFFFFFFFFFFFFF2F
:1001E000FFFFFFFFFFFFFFFFFFFFFFFFFFFFFFFF1F
:1001F000FFFFFFFFFFFFFFFFFFFFFFFFFFFFFFFF0F
:100200000648854601F03EFB00F018F800F04EFE6F
:1002100000480047791C000001F01AFA0010001095
:100220000448804704480047FEE7FEE7FEE7FEE794
:10023000FEE7FEE7DD1C000001020000042104A02F
:1002400002F0C0FE0349086003490860FFF7DEFFC3
:100250003A747400800700106C07001038B505462A
:10026000684605700C46086800230122694602F0C2
:100270002FFF002802D00020C04338BDE068401C9A
:10028000E060284638BD30B50B46014600202022EC
:10029000012409E00D46D5409D4205D31D469540F9
:1002A000491B2546954040191546521E002DF1DC8C
:1002B00030BD70B500242546002801DA01244042F3
:1002C000002901DA01254942FFF7DDFFAC4200D0E9
:1002D0004042002C00D0494270BD421C0178401CB5
:1002E0000029FBD1801A70470122D207002800DBC9
:1002F000101A002900DB511A81427047FFFFFFFFEF
:10030000F0B58BB0FC4C204602F04EFF8011FB494B
:1003100008600868C10F09184910F84A11601046B2
:100320000068400011460860F5480068F54908601B
:10033000F54909681268881A01F044F8F049086024
:10034000F0480168EE48006800F0D5FD039001F028
:1003500071F80646002201239B0700F0BBFFEB4A21
:10036000EB4B0591049000F04DFF09910890E9488E
:10037000006801F05FF807910690099B089A00F069
:100380008FFE044601F092F8E2490860DD480168FA
:10039000DB48006800F000FE064601F04BF804461A
:1003A000DA4ADB4B00F096FFDB4A03C2DB49D9484F
:1003B000006801F097F802D2D848D6490860D849B9
:1003C000D4480068FFF790FF02D2D548D1490860B1
:1003D000D44AD54BD04903C900F014FF05910490CD
:1003E000CC48006801F026F804460022CF4B00F00C
:1003F00009FF01910090C248006801F01BF8044613
:10040000CB4ACC4B00F0FEFE0646019B009A00F062
:1004100047FE03910290059B049A00F041FE0022E2
:10042000C54B0791069000F0EDFE0991089001F090
:100430003DF8C2490860B1480068002803DDAF48B4
:100440000068BE2802DB0020BC490860BC49BB48EC
:10045000006800F0E6FDB94908600846006800F051
:10046000E9FFB84A03C20022B74BB64903C901F0FD
:1004700009F804D20021B448B24A11605060002249
:10048000B24BB04903C900F0E9FF04D20021AF48E4
:10049000AC4A11605060AB4903C901F007F804464B
:1004A0002146AB4802F015F8A64903C900F0FEFF4B
:1004B00004462146A74802F00CF80BB0F0BD08B581
:1004C000A549A34800F0A9FAA349A24800F0A5FA5B
:1004D000A24CA34DA34FA449384600F065FD0090FF
:1004E00000F094FF064629462046143001F02DFD09
:1004F0003146204601F0D2FE00BF00BF01219B48DB
:1005000001F05EFE02219A4801F02DFD022199487A
:1005100001F029FD7F20C00503F0BCFC1BE09448DE
:1005200001F096FD002804D177480068401C764908
:100530000860904801F08CFD002804D172480068E2
:10054000401E71490860704801688BA001F0F6FFF9
:100550008D4803F09FFCE2E730B58DB00020C0432A
:1005600009900A900B900C900590069007900890C7
:100570000190029003900490CB20800075231B0112
:100580008722920081490090784801F0B5FD044629
:100590007F4A804900F09AFC0020C04309900A90ED
:1005A0000B900C9005900690079008900190029097
:1005B0000390049003460246774900906C4801F08E
:1005C000E3FC0446724A754900F080FC0020C043F9
:1005D00009900A900B900C90059006900790089057
:1005E0000190029003900490034602466C490090EB
:1005F000604801F0C9FC0446654A684900F066FCA1
:100600003D4C684D2946204602F096FD00BF534CF4
:10061000204601F019FC0446634800212060204672
:10062000143001F096FC0546143D594A5F492846AE
:1006300000F04CFC00235E4A5E495F4801F0C6FDB5
:100640000446534A5D4900F041FC5D4B5D4A5E49FA
:10065000404800F0BCF904464D4A5C4900F036FCC5
:1006600091239B015A4A13214902394800F0AFF9FE
:100670000446474A554900F029FC0020C043099030
:100680000A900B900C9005900690079008900190AE
:100690000290039004904F484F4B464A6C32AD2174
:1006A000490100904D4801F06FFC0446384A3B492F
:1006B00000F00CFC01203021831E3E4A6C32009178
:1006C0000190AD214901464800F0EAF90446304A5C
:1006D000444900F0FBFB01203021831E3D4A00917C
:1006E00001903D49404800F0DBF90446284A3D4965
:1006F00000F0ECFB0DB030BDC0000010C4000010D5
:10070000EC000010F0000010C8000010FCA9F1D2AD
:100710004D62503F00010010F800001000007A44C4
:1007200000007AC42F6EA301BC05623F0000E03FC9
:100730000AD7A3703D0AA73F0000594004010010EA
:100740000000C842D00000100000F03F0000F0BFE1
:100750005C030010BC0200109A99193F2C02001093
:10076000010300006F12833A002474495401001001
:100770009C010010E4010010676F616C5F70656E92
:100780003A2025640D0A00000AD7A33D702B000013
:100790000000000099210000AC3300002920000077
:1007A000582A0000981B0000904700001123000009
:1007B000A4160000A81700005C020010F921000038
:1007C000202700002428000054290000B124000044
:1007D00044250000843000004C060000FC0300109B
:1007E000440400103D1D00006405001070B504466F
:1007F0000E46251D00206060A060E060206131464B
:10080000284602F0E5FD00BF2C1F2046143001F001
:100810006BFD0446143C25464435284601F064FD32
:10082000054631482C46443C2860204670BD016096
:100830007047F8B504460D46164625602B480096CD
:1008400021460CC82046143003F0C4FBF8BD10B597
:1008500004462046143001F02FFD10BD38B5044683
:100860002068002804DC0021201D01F088FA0CE03B
:100870000121201D01F083FA206800901C482146C8
:100880000CC82046443003F0A5FB38BD10B5044623
:100890000021201D01F073FA10BD70B504460E460C
:1008A00000BF0020205E401C002804D121221149F5
:1008B00011A002F0E7FE00BF0020205E0F21090218
:1008C00008400512002E07D0E06800680121A94009
:1008D0000843E168086006E0E06800680121A9407B
:1008E0008843E168086070BDA4470000184000001C
:1008F00010400000FC4700006F626A2D3E70696E78
:1009000020213D202850696E4E616D65294E4300BF
:10091000FEB504460E467F21C905304600F0E2FDD3
:1009200001D27F26F60554493046FFF7DDFC00D2A0
:10093000514E942006510021304600F0D3FD0AD2DA
:1009400001212046743001F01AFA0021204684303B
:1009500001F015FA09E000212046743001F00FFA89
:1009600001212046843001F00AFA9C2001593046CA
:1009700000F01AFB054600BF6800400800BF009069
:1009800098200159009800F00FFB019000F025FD20
:10099000074639462046FFF74AFFFEBDF8B5044634
:1009A0000D463649284600F0FFFA074600F015FDCF
:1009B000064600F007FD98210851085900F00DFD8A
:1009C0000646324600212046FFF733FFF8BDF8B552
:1009D00004460F4615461E4631462046FFF706FFE1
:1009E000044639462046743001F0BBF90446743C95
:1009F00029462046843001F0B4F90446843C7D2128
:100A0000C9059C2001511E492046FFF7C7FF002160
:100A10002046FFF77DFF2046F8BD9C22115070470D
:100A2000014694204058704770B504460E4600BFFA
:100A30000020205E401C002804D12122114912A070
:100A400002F020FE00BF0020205E0F2109020840B6
:100A50000512002E07D0E06800680121A940084374
:100A6000E168086006E0E06800680121A940884369
:100A7000E168086070BD0000000080BF0024744978
:100A80006F12033AFC4700006F626A2D3E70696E78
:100A900020213D202850696E4E616D65294E43002E
:100AA000FFB583B0044616461D460D9F201D0499D0
:100AB00001F00CFA041F314620465C3001F006FAC2
:100AC00004465C3C29462046B43001F0FFF9044658
:100AD000B43C0021FF2019300151001D0151FF21BC
:100AE0000D310C9808512770201D01F0D9F90290A2
:100AF00020465C3001F0D4F9019002984000019941
:100B00000843FF211531085108460159001F0151C2
:100B1000604821460CC8201D03F0EDF95E482146CF
:100B20000CC8201D03F0D6F9012F0DD159482146DC
:100B30000CC820465C3003F0DEF9574821460CC84B
:100B400020465C3003F0C6F9681C002806D05348E4
:100B500021460CC82046B43003F0CDF9204607B03A
:100B6000F0BD0022FF2119310A50091D0A507047BB
:100B70000146FF201530405870470146FF201930CC
:100B8000405870470146FF201D3040587047F8B567
:100B900004460025201D01F083F9064620465C30FE
:100BA00001F07EF9074670003843FF2115310851E6
:100BB0002078002835D1081F0059032803D10846A2
:100BC0000059002809D0FF201130005900280CD10D
:100BD000FF2015300059032807D1FF201930005994
:100BE000401CFF211931085145E0FF201130005908
:100BF000022804D1FF2015300059012809D0FF2018
:100C000011300059012836D1FF2015300059022833
:100C100031D1FF2019300059401EFF2119310851F0
:100C200029E02078012826D1FF2015300059FF2126
:100C300011310959484003281DD0FF2015300159B2
:100C4000001F0059814216D0FF201130005DC007FF
:100C5000C00FFF21153109590222114049104840A7
:100C60000546002D00D1451EFF2019300059411BBB
:100C7000FF2019300151FF2015300159001F01518B
:100C8000F8BDFF211D310958491CFF221D321150AA
:100C90007047000020400000284000003040000065
:100CA00003460B439B0703D009E008C9121F08C085
:100CB000042AFAD203E00B780370401C491C521E30
:100CC000F9D27047D2B201E00270401C491EFBD23B
:100CD00070470022F6E710B513460A460446194647
:100CE000FFF7F0FF204610BD10B5002200E0521CB7
:100CF000835C8C5CA34201D1002BF8D1D8B2E1B265
:100D0000401A10BD30B505460020034600E05B1CCC
:100D1000934205D2EC5CC85C201A01D1002CF6D1BC
:100D200030BD00000FB400B58DB009900B9010A934
:100D300000200091C0430A9000200C9006480690C5
:100D4000064807906A4609A80F9900F041FC0DB0CB
:100D500008BC04B018470000F1150000111600008F
:100D6000FFB50027FF4383B000205C6801909E68B8
:100D70001D46A9697F1C049888470090296A884706
:100D80000028F6D10098401C0CD003204002844378
:100D9000002E19DD600614D500982B2809D02D28C7
:100DA0000FD103E00020C04307B0F0BD0120800256
:100DB0000443A9697F1C04988847761E0090002E82
:100DC00002DD0098302803D00598002825D035E0B2
:100DD000012040020443A969761E7F1C04988847BD
:100DE0000090002E03DD782805D0582803D0059800
:100DF000002810D022E00598002801D010281DD12D
:100E0000012040028443A969761E7F1C049888470C
:100E10000090102002E0082000E00A2005900DE07C
:100E2000012149020C43059A0199761E5143081885
:100E30000190A9697F1C049888470090002E05DD69
:100E40000599009800F0AFFB0028E9DAE9690498F9
:100E50008847A00502D40120C043A5E7E00722D1BE
:100E6000600611D56005019800D5404229680A1D29
:100E70002A600968220501D5087014E0220701D50F
:100E8000088010E008600EE02868011D29600068F5
:100E9000210502D50199017005E02107019901D5CD
:100EA000018000E0016038467EE7000070B5054C27
:100EB000054D03E0206800198047241DAC42F9D19C
:100EC00070BD00006048000064480000F8B50746A7
:100ED00015460E46102002F09FFB040009D0676003
:100EE000A660E56000F0A6FB0168216004600020B8
:100EF000F8BD0120F8BDF8B502464A40D40F4200C3
:100F00004B0052085B089A4202D20246084611463C
:100F10004A0023D0C30D4A00DDB2120EAD1A202DB7
:100F200035DA49020126490AF6058A19002C00D053
:100F3000524220214F1B1146B9402A411018C20DC0
:100F40009A4221D0002C17D0012D08DCDA05801A36
:100F5000D20F8019D207DBB200F0A3FBF8BDDA058F
:100F6000801A012340001B06C01880185A428018BE
:100F7000CA0F1043490007E04908C2071143DA05C8
:100F8000801A80194008801800F083FBF8BD6100CA
:100F90000122511A001BF7E70122D2075140AAE7AC
:100FA0000122D2075040A6E7024670B54A40D30F4F
:100FB000DB0740002DD04A002AD0010E140E00029B
:100FC00012020919400A520A8418E50104465443E2
:100FD000000A120A2E045043A4194219200CC543DA
:100FE000AA18120C0125AD03521C521912047F39A4
:100FF000240400D0521C104301D44000491EC2B248
:101000000C06C0092018401C4008802A02D003E0CA
:10101000002070BD40084000002900DA002018437D
:1010200070BD70B502464A40D50F40004A00ED073A
:1010300040085208002814D0002A12D0C40DD30D45
:1010400041020120C0055202490A520AE41A091855
:1010500012187D34914201D3641C00E04900002C39
:1010600001DA002070BD0023914201D3891A0343A5
:10107000400849000028F7D100290AD0914202D146
:101080000121C90705E0914201D2012101E00121BE
:10109000C943E005C018401900F0FBFA70BD00001C
:1010A000F0B507460846584087B0C00F0490480086
:1010B0000E46590040084908BC1A884105D23846F6
:1010C00031461E4617460B4602465800400810435C
:1010D0004CD0300D039040055900400D490D05904E
:1010E000401A0290402872DA18030121000B09050A
:1010F0000843019004980092002805D001995242BB
:101100000020884100920190029840210A1A01991A
:10111000009800F025FA05460C466B4607CB00F018
:101120002FFAC0197141039A0E0D0023D7175640AC
:101130001A467A40164344D0049A002A2DD0029AC7
:10114000012A039A15DC1205C01A914101263605C1
:10115000001C7141D20F059ED207009301920296A6
:101160002A46234600F0E3FA07B0F0BD3846314680
:10117000FAE71605224A0F46B218C01AB7410121F4
:101180000905001C4F4100187F411146181879418C
:10119000E20F10436D19644113E0E2076D08154337
:1011A0006408C2071443039A01261205C01A91412C
:1011B0003605001C7141CE07400830434908C0186D
:1011C00051412A46234600F0A5FACDE7FFE70498EF
:1011D00001224000C117121A00238B4104983146A6
:1011E000C417381AA141EEE730B40124E407634084
:1011F00030BC55E730B40124E407614030BC4FE710
:101200000000E0FFF0B51FB488B00B9909980024E6
:1012100048400999C00F490049080991C0070B9936
:101220000090490049080B9109990898A64608437F
:101230001CD00B990A98084318D009980124400043
:10124000420D4800410D099824050003000B20437E
:1012500009900B980003000B20430B9050181C4979
:101260004018002201901446104605E00020014677
:101270000DB0F0BD032801DA034600E003239C46CD
:10128000C11A0AAE0AE05F0008ADED5B4F00F75BE4
:101290007D430027AA187C41491C5B1E6145F2DD95
:1012A000410004AB5A522104120C0A43240C401C86
:1012B0000828DFDB019802900099704601910090A8
:1012C000059B049A0799069800F031FAD0E70000D0
:1012D0000DFCFFFFF0B50C465C4085B0E40FE40761
:1012E00003944C00002664085900944649080246BD
:1012F0000296224321D062460A431ED06200570D57
:101300004A000E032303550D012402462C492405EF
:10131000781B1B0B360B4018234326436146009075
:101320001C46501AB44103D30098401C009002E0C0
:10133000921800985B41002803DA0020014605B0AE
:10134000F0BD0020012109050746864611E06446EC
:101350001D46141BB54106D36546521BB341744666
:1013600007430C43A646CD07400849082843921876
:101370005B4105460D43EAD11046184313D0604641
:10138000194650407140084306D06046101AB341D8
:1013900006D20122002306E000220123DB0702E03F
:1013A0000122D2435310009874460105381C614154
:1013B000029C039D0019694100F0ACF9BFE70000F1
:1013C000FD030000C217C10F504010B54018CA07F6
:1013D0009623002100F065F910BDC20F41004002C4
:1013E0000123400ADB05D207090EC0187F2901DA64
:1013F00000207047962903DC9623591AC84001E063
:1014000096398840002AF4D040427047410040029B
:101410000122400AD205090E80187F2901DA002036
:101420007047962903DC9622511AC84070479639B6
:1014300088407047C20FD207400040080BD0C10D52
:101440000723DB01C91840020905400A1143C208FD
:1014500040071143704700200146704710B500292E
:1014600004DB0124E40740428C412146002B04DBCD
:101470001C460123DB075242A3418B4200D182422A
:1014800010BD000010B5002904DB0124E407404230
:101490008C412146002B04DB1C460123DB07524212
:1014A000A341994200D1904210BD0000CB0FDB0751
:1014B000490010B5490802460A4307D00A0D07241F
:1014C0000903E401090B121B002A01DC002010BDF6
:1014D000C900440F0C43C100E018D205801800F089
:1014E000D8F810BD0122D207002800DB101A00290D
:1014F00000DB511A8842704710B500F08BF910BD1F
:10150000F0B51FB40646002082B005464024019184
:1015100000901BE0019922460F46304600F0C4F9C6
:10152000049A059B801A994110D310461946224609
:1015300000F016F8361A8F4101972246012000214B
:10154000009F00F00DF838184D4100902046641EB1
:101550000028DFDC019B00982946324607B0F0BD29
:1015600010B5202A04DB0146203A9140002010BD2E
:10157000914020239C1A0346E3401943904010BD3C
:1015800010B5202A06DBCB170846203A1041C117B8
:101590000B4306E00B461341D0402024A21A914091
:1015A0000843194610BD3A2800D23038202302469D
:1015B0009A43412A01D310463738884201D300208C
:1015C000C04370470268137851180160184670478D
:1015D00010B5D160044951610449116200211161C3
:1015E000114600F079F910BDC5150000CB180000B8
:1015F0004268002A08D001680B78491C002B03D0F0
:10160000521E06C0184670470121C160881E7047EF
:101610004268002A0BD0C3680168002B07D1836899
:101620008B4204D0491E521C06C000207047002087
:10163000C0437047004870473C01001003487047A2
:101640000248001D011F8860001D70474001001006
:10165000F8B50646FFF7EEFF0090054615E0002EB0
:1016600002D0E068B0420FD1206828600098A168DD
:10167000076860688847204601F008FE0098006807
:10168000B84202D00098E8E725462C68002CE6D145
:10169000F8BD002904DA401C490001D1400840008F
:1016A000704770B40024050C05D11024000402D149
:1016B000002921D01124050E01D100020834050FA4
:1016C00001D10001241D850F01D18000A41C002838
:1016D00001DB4000641C002908D020252E1B0D468C
:1016E000F540A14000D001212943084301061B1BFE
:1016F000000ADB1D02D5002070BC7047DB051818FE
:1017000080180029F8DA401C4900F5D170BC400867
:101710004000704710B5002B08DA0024401C6141DE
:1017200092185B411A4301D14008400010BDF0B54A
:101730001FB482B005460C0003D0084600F02EFF0F
:1017400002E000F02BFF20300246009021462846A0
:10175000FFF706FF049B059A04460F461843114302
:10176000084314D0184610431BD0009840210A1A91
:101770001846059900F098F805460E46009A059916
:101780000498FFF7EDFE084305D0012004E0204651
:10179000394607B0F0BD0020C11705430E432C4366
:1017A000374300990E986305401A7905E40A002230
:1017B0000C43FD0A0A3002D500200146E9E7010585
:1017C000101969410C9C0D9D00196941FFF7A2FF9A
:1017D000DFE700004A0009030123090B1B05194339
:1017E0000A4B10B5520D9A4202DA0020014610BD94
:1017F000064B34339A4203DC9A1A00F055F810BDB8
:10180000034BD218FFF7ACFE10BD0000FF03000031
:10181000CDFBFFFF10B500F00EF80169002903D0E1
:1018200000220261884701E080688047C046C046C8
:1018300010B5C046C04670B5FFF702FF0468054604
:10184000002C15D1202001F0E7FE040012D000206A
:1018500009492C6003C4094921602071A060E0603F
:1018600007492061083C002901D000F0D2F9E0616D
:10187000204670BDC046C046000000003118000080
:1018800000000000064C0125064E05E0E36807CC89
:101890002B430C3C98471034B442F7D3FEF7B4FC0A
:1018A000404800006048000010B5202A04DB0846CC
:1018B000203AD040002110BD0B46D340D040202418
:1018C000A21A91400843194610BD10B50F21C0B2AD
:1018D000490200F0BFF910BDF3B58DB000200A90A9
:1018E00001200B90002608460C300C4609906269D6
:1018F000012109989047051E2ED0252D2DD0216A53
:101900008847002818D06269012109989047216A08
:1019100088470028F7D1411E62690998904700E086
:10192000761CA1690D988847216A88470028F7D15D
:10193000E1690D988847DAE7A1690D98884707465D
:10194000A84201D1761CD2E7E1690D9888477F1C37
:1019500002D10A98002877D049E1002762693D4604
:101960003946099890472A280CD1626901210998C3
:101970009047012506E00A214F433F18303FEBD442
:1019800010200543626901210998904701463039CA
:101990000A2903D29B498F42DEDCECE7E90600D43A
:1019A000994F6C280AD04C2810D0682824D06A2877
:1019B0002ED074280CD07A280AD00DE0626901215B
:1019C000099890476C2823D004211CE0202005436F
:1019D0006269012109989047A760656065284FD02A
:1019E00026DC582839D01ADC452849D012DC2528B5
:1019F00034D04128B0D143E0626901210998904771
:101A0000682802D008210D43E6E70120C002DEE786
:101A10000220DCE7462833D047282CD130E05B2871
:101A200070D061282CD063286CD0642823D161E069
:101A30006F284FD009DC662822D0672820D069287B
:101A400026D06E2817D12EE0CDE070284DD0732817
:101A50006FD075284ED078280DD154E0A1690D982B
:101A600088470546252800D16CE7E1690D9888472D
:101A70006D1C00D16DE7BAE00A224CE00A2252E068
:101A8000012023466A46C0430D99C046C046A3E0E4
:101A90002846402108436060A807234601D500225C
:101AA00039E000223FE0E80700D020E72068011D70
:101AB00021600068290501D5067018E7290701D5BE
:101AC000068014E7A90703D5F117066041600EE709
:101AD00006600CE72846402108436060A8072346BB
:101AE00001D5082217E008221DE048492846084091
:101AF000606016E02846402108436060A80723463E
:101B0000BCD5B9E715E02846402108436060A80726
:101B100007D5234610220120C0430D99C046C04678
:101B20005AE0234610220120C0430D99FFF718F90F
:101B300052E000210C910B460091632802D05B28F3
:101B400007D043E0E80601D40120A0600120009006
:101B50003CE062690121099890475E2805D1012087
:101B60000C9001466269099890472169002906D1C5
:101B70000B4601AA8F00491CD3510829FADB002823
:101B800035D0216900290ED1C117C90E09184A1193
:101B9000930001AA9A1849094901411A01201368C2
:101BA00088400343136062690121099890475D28CA
:101BB000E5D10C98002808D0002001AB81005A58CC
:101BC000401CD2435A500828F8DB01AB01202246C2
:101BD000C0430D99C046C04600280ADA401C06D111
:101BE0000B98002803D00020C0430FB0F0BD0A9826
:101BF000FBE7E90702D10A99491C0A91361800202F
:101C00000B9074E6CCCCCC0CFFFFFF7FF1F7FFFF0D
:101C1000704710B5882001F0FFFC002801D000219A
:101C2000017010BD802904D8002802D00178002955
:101C300001D0002070470121017008307047002852
:101C400003D002460832914201D0002070470021A3
:101C5000017070477F2801D9002207E0054B420838
:101C60009A5CC00700D112091207120F01209040A0
:101C7000084070472846000010B501F0F6FD01F05D
:101C8000F3FDFEF71CFC10BD10B5002100F061F95A
:101C900010BD0000F0B484460E48026893070E4A57
:101CA0009B0F1768012B0ED000252B463A469C004F
:101CB0002E59165166197668A41866609B1C302B45
:101CC000F5DB0122026060468000C0190164F0BCAF
:101CD00070470000008004400C01001070B41348ED
:101CE0000024046001234360446043604168C907E5
:101CF000FCD00F4923228A600E4A956B8026B5439B
:101D00009563CA68D207FCD003210163436344632F
:101D10004363416BC907FCD0836307480168012214
:101D200012041143016070BC704700004080044001
:101D300000800440008204408080044010B50446C6
:101D40002046B43000F0E8F80446B43C583800F0BF
:101D5000E3F804465C3C583800F0DEF8041F2046E7
:101D600010BD70B504460D46002020606060A06084
:101D7000E0602946204601F02BFB204670BD70B57F
:101D800004460D4600BF29462046FEF786FD00BFEB
:101D9000204670BD70B4084901600021074A102335
:101DA0000D468C001659864200D11551491C5B1E08
:101DB000F7D170BC70470000704600008406001028
:101DC00010B50C46001D01F081FF204610BD1C22FD
:101DD000514310B508180C3000F0AAF810BD0000EF
:101DE00070B50E460E4901600021416081601546C4
:101DF00002231C220B490C3000F0E7FB04464B2069
:101E00000C3CC00160642A463146201D01F0EAFE08
:101E100022460549201D01F04FFF204670BD0000FD
:101E20009C460000891C0000CF1D000001688968E5
:101E3000084710B50246001D01F08CFF10BD10B51B
:101E4000001D01F0F3FF10BD10B5044605482060E9
:101E500000206060A060E060034802F007F82046C0
:101E600010BD0000AC4600002D1E000010B5044659
:101E700003482060201D01F0D9FF204610BD00005E
:101E8000AC46000010B5002906D0012905D0022972
:101E900002D13C3000F04CF810BD2030FAE70000D1
:101EA00010B504460420205E401C04D12A220549B6
:101EB000054801F0E7FBA0680068002800D0012079
:101EC00010BD0000444400002C44000070B50D46D5
:101ED0000F490160002141608160C1600161416181
:101EE0008161C161203000F034F800211C3000F025
:101EF00030F83C3804460346064A2946143001F0BF
:101F0000A9FA2946201D01F051FA204670BD0000B3
:101F1000C0460000851E000010B50446034820603E
:101F20002046143001F08EFA204610BDC046000055
:101F30000168002900D008474368002B04D00146FF
:101F400082690831184610477047016000214160DE
:101F500070470022426082610160704710B5002125
:101F6000C046C04610BD70B50D4606460024A00010
:101F700080194068002802D0294601F0F2FA641C5A
:101F8000102CF4DB70BD0000F0B589B09E4694467D
:101F9000044624480F9F109E139D199B0E9A2060A3
:101FA000684601806146418071468180C280078118
:101FB0004681119981811299C181058214994182CA
:101FC000159981821699C1821799018318994183C5
:101FD00083831A99C183002005466E4660646F00B2
:101FE000F05F401C0CD0102000F086FA0890F15FE2
:101FF0000022026042608260C26001F0D7F9089856
:10200000A90009194860F05F401C04D00120616CF0
:10201000A840014361646D1C102DE0DB204609B02F
:10202000F0BD0000D046000070B50546074800240A
:102030002860A00040194068002801D000F057FA3D
:10204000641C102CF5DB284670BD0000D046000053
:10205000F8B5002407462546A800C0194668002E9A
:102060000FD00020305E401C04D12A2207490848C6
:1020700001F008FB70680068002800D00120A8402B
:1020800004436D1C102DE7DB2046F8BD74430000AF
:102090005C430000F3B581B007460025A800C019D5
:1020A0004468002C1ED002982841C6070020205EFC
:1020B000F60F401C04D121220D490E4801F0E2FA2E
:1020C00020880005000F002E06D0E1680B68012271
:1020D000824013430B6005E0E268136801218140F0
:1020E0008B4313606D1C102DD8DB03B0F0BD0000D6
:1020F000A44200008C420000F0B589B09E46944690
:10210000044624480F9F109E139D199B0E9A206031
:10211000684601806146418071468180C2800781A6
:102120004681119981811299C18105821499418258
:10213000159981821699C182179901831899418353
:1021400083831A99C183002005466E4660646F0040
:10215000F05F401C0CD0102000F0CEF90890F15F29
:102160000022026042608260C26001F031F908988A
:10217000A90009194860F05F401C04D00120616C7F
:10218000A840014361646D1C102DE0DB204609B0BE
:10219000F0BD0000E046000070B505460748002489
:1021A0002860A00040194068002801D000F09FF985
:1021B000641C102CF5DB284670BD0000E0460000D2
:1021C00010B50446FFF766FF204610BD10B51C464B
:1021D000FFF706FE2146483000F02CF84838034946
:1021E00001600349C1640349816410BDF0460000E9
:1021F0003C4700000847000010B5483000F03CF8AC
:10220000483810BD0020704700207047F8B58E1880
:102210000D4607460C46B14209D038682178426A1B
:10222000641C38469047401C01D0B442F5D1601B75
:10223000F8BD000010B584B000F0CEF804460A489E
:1022400020600A48606000206061224608A168465C
:1022500000F084F907A1684600F0F7F96061FFF724
:102260007DFE204604B010BD4C47000080470000B2
:102270003A257000772B000010B504460548206011
:1022800005486060606900F0C5F9204600F0B6F8C6
:1022900010BD00004C4700008047000070B50D469F
:1022A0000446FFF7CCFD256101F092FD216941183C
:1022B0002046FFF7BEFD70BD10B50446FFF7BFFD19
:1022C000204600211430FFF740FE10BD10B5044633
:1022D0004068216941182046FFF7ABFD20461430C5
:1022E000FFF726FE10BD000010B504462046FFF79C
:1022F000ABFD044605480021206020461430FFF75E
:1023000028FE0446143C204610BD00009047000003
:1023100010B50446064820602046FFF790FD204691
:1023200000211430FFF711FE2046FFF79FFD10BD7E
:102330009047000010B51430FFF7FAFD10BD007B88
:102340007047000070B506460C480D460468002C26
:1023500012D0A06800280CD02A463146FEF7D2FCE5
:10236000002806D1A068FDF7B8FFA84201D1204699
:1023700070BD6468002CECD1002070BD30010010ED
:10238000064B03600023436081600273002903D081
:1023900003490A684260086070470000B8470000BF
:1023A000300100100A4901608168002905D0094AFE
:1023B0001168814202D14168116070474A688242C7
:1023C00003D0114652688242FBD142684A6070478E
:1023D000B84700003001001010B5054A04C00022C3
:1023E000FFF7CEFF001F034901600349416010BDA4
:1023F00070460000C8470000F447000010B5001DFB
:10240000FFF7D0FF001FFFF7C5FC10BD10B5044655
:102410004068002803D0FFF792FF012801D0002078
:1024200010BD606810BD10B504464068002803D098
:10243000FFF785FF002801D0002010BD606800284C
:10244000FBD0001F10BD4068002800D0012070475D
:1024500010B54068002804D0FFF771FF002801D0B4
:10246000002010BD012010BD0068704710B5044663
:1024700000202060606008782F280FD1487800285D
:102480000CD04B1C00211A46236010782F2807D04F
:10249000002807D0491C521C2260F6E7204610BDD8
:1024A000501C20601846FFF74DFF6060204610BDAD
:1024B00070B504462546264644363046FFF728FFC9
:1024C0000546443D3038FFF723FF0446143C2046C0
:1024D00070BD70B504460D4629462046FEF718FA31
:1024E000204670BD10B54838FFF76AFC10BD10B526
:1024F00000F0CCFE10BD000010B5040008D101248E
:1025000006E0FFF79BF80068002800D103488047E9
:10251000204601F081F80028F3D010BDF914000026
:102520000FB410B5024604A9034B039800F092F9CA
:1025300010BC08BC04B018475D0200000FB410B511
:1025400003A9044B044A029800F084F910BC08BCAB
:1025500004B018475D0200006C0700100FB410B5FE
:1025600004A9074B02AA039800F074F9044602A9D3
:10257000002000F00BFD204610BC08BC04B018473A
:102580008D2F000070B514460D460246024B2146C1
:10259000284600F05FF970BD5D0200002021020CAA
:1025A00001D010211046020A01D010460839020954
:1025B00001D01046091F820801D01046891E42082A
:1025C00001D0881E7047081A7047FFB581B01C46BD
:1025D00017460E0007D0019D02E02846B047ED19CE
:1025E0002046641EF9D2019805B0F0BD10B5002058
:1025F000C046C04610BD02E008C8121F08C1002A2C
:10260000FAD170477047002001E001C1121F002A73
:10261000FBD1704710B50446006800F0BDFC0028EF
:1026200002DA0020C04310BD204600F02FFE00203B
:1026300010BD10B5C168006800F036FD002802DA50
:102640000020C04310BD002010BD70B506460D46E9
:10265000142000F0E1FF04000AD01421FEF739FB3A
:1026600022462946304600F0C5F8050002D004E0B5
:10267000002070BD204600F009FE284670BD000015
:10268000F0B51FB486B00998089A030D00210243E3
:1026900014D05148514A1818504305141198012874
:1026A00010981AD0281A401C00264D4F4D4900960C
:1026B00001910490002812DA444211E0119801249B
:1026C00049A3012801D11098C1430698119A84604A
:1026D0000360C26041600BB0F0BD4042E4E70446D5
:1026E000210500203F4A001C51410391029012E055
:1026F000E00707D032463B4601990098FEF782FD7D
:102700000191009032463B4610461946FEF77AFD8D
:1027100006460F466410002CEAD10498039B00285B
:10272000029A0999089806DAFEF76CFD019B009A57
:10273000FEF768FD05E0FEF7CDFD019B009AFEF770
:10274000C9FD04460E460022284BFEF79BFE03D827
:102750000020C043014607E00022254B20463146B9
:10276000FEF79EFCFFF736F8102409E0002C0ADB88
:102770000A220023FEF7C4FE079B30321A55641E5E
:1027800002460A43F2D11122641C079B121B1C193A
:10279000119B012B03D0012308430ED10AE008430B
:1027A00004D0112010900020119077E71098151A8E
:1027B0006D1E0BE01098824202DD00236D1C03E0C9
:1027C000824201DA00236D1E002BEED0069811998B
:1027D0008260C16030C07EE701FCFFFF104D000049
:1027E000000014400000F03F300000000000F04303
:1027F0000000E03F70B50646106815460C460028FC
:1028000001D000F0C9FB2078641C612808D0722830
:1028100002D077281CD101E0002102E0042100E071
:102820000821022201232078002809D0641C2B28CB
:1028300002D062280CD101E01143F4E71943F2E71A
:10284000304600F0BFFB411C02D02860284670BD16
:10285000002070BDFFB597B00646002518E2252878
:1028600077D100242746FD49049400E00443761CF8
:1028700032780120203A90400842F7D130782A2857
:102880000ED00222307801463039092916D8049931
:102890000A235943303940181443761C0490F1E759
:1028A000189802C804911890002904DA0120400306
:1028B00004434842049002200443761C30782E28BA
:1028C00014D1042004437078761C2A2809D1189862
:1028D000761C80C8189009E00A214F43303FC71981
:1028E000761C3078014630390929F5D930786C28C2
:1028F00010D006DC4C281AD068280ED06A2817D1D0
:1029000004E0742813D07A2812D110E00120400589
:1029100004430CE00121090501E0032109050C43F2
:102920007178814203D1012000052418761C761CA1
:102930003078119066280BD013DC58287DD009DC44
:1029400000287BD04528F6D04628F4D047281AD155
:10295000A5E118E0632835D0642870D0652812D12D
:102960009DE170286CD008DC6728F1D069287BD005
:102970006E280DD06F2806D1BAE073282ED07528A6
:1029800071D0782859D01A9A199990476D1C7EE118
:102990006002400F022809D003280DD0042818989F
:1029A00001680DD00D60001D189070E11898EA17AD
:1029B00001680D604A60F6E7189801680D80F2E73B
:1029C0000D70F0E718986A4601781172001D189092
:1029D0000020507202A80090012005E0189802C85B
:1029E000189000200091C04361070DD5002101E03F
:1029F0000199491C0191B94212DA8142F8DB009A2F
:102A0000515C0029F4D10BE0002101E00199491C3F
:102A100001918142FADB019A0099895C0029F5D184
:102A2000019904981A9B471A21463846199A00F0D2
:102A300097FA0199401945180BE04FE02CE113E09B
:102A40004EE0009800990078491C00911A9A199953
:102A500090470198401E0190401CF2D12146384613
:102A60001A9B199A10E137E00A2000210090019189
:102A70006002410F022907D0189A01CA1892C217A2
:102A80009446032908D00AE01898C01DC108C9005F
:102A900005C91891944607E000B2C217944604296C
:102AA00002D140B2C1178C4600226146944506DA35
:102AB0000A460021404291418C462D2102E0210529
:102AC00004D52B216A461173012103E0E10701D0EF
:102AD0002021F7E7029155E00A200AE0102008E0E3
:102AE000102000900021042004430191082703E0F6
:102AF00008200021019100906002410F022907D0B7
:102B0000189A01CA189200229446032908D008E0B6
:102B10001898C01DC108C90005C91891944603E062
:102B200080B2042900D1C0B200210291210729D529
:102B30001199702906D0009A1021019B4A401A432E
:102B400005D00EE040216A461173012108E061467C
:102B5000014306D030216A46117311995173022145
:102B60000291009A0821019B4A401A430AD161460A
:102B7000014301D1610705D530216A461173012156
:102B80007F1E02911199582904D035A10E910DA9EB
:102B90000D910DE037A1F9E76146019B009AFEF720
:102BA000AFFC0E9B8C469B5C0D9A521E0D921370CF
:102BB00061460143F0D10D9805A9081A2030019013
:102BC000600703D501200004844300E00127019839
:102BD000874201DD381A00E0002001990090411879
:102BE000029809180498401A0490E00306D421467C
:102BF0001A9B199A049800F0B3F94519002706E0CA
:102C000003A81A9AC05D199990476D1C7F1C029801
:102C10008742F5DBE0030CD521461A9B199A0498EC
:102C200000F09EF9451904E01A9A3020199990474E
:102C30006D1C0099481E00900029F5DC08E00D98F5
:102C40000D990078491C0D911A9A199990476D1C9D
:102C50000199481E01900029F1DC63E10928010077
:102C60003031323334353637383961626364656602
:102C700000000000303132333435363738394142C4
:102C8000434445460000000000F05AF94519761CFF
:102C90003078002800D0E2E528461BB0F0BD600780
:102CA00000D406271898C01DC108C90048680A68E2
:102CB0000831C30FDB071891190001D09CA108E06F
:102CC000210501D59BA104E0E10701D09AA100E014
:102CD0009AA1430011985B08109165280CD006DC7E
:102CE000452809D046281DD0472841D141E0662813
:102CF00018D067283CD13CE00021112F01DB1120C6
:102D000000E0781C0191009008A911A8FFF7B8FC19
:102D1000139905910021119A15927F1C1298019721
:102D2000009150E00120C00703900120019008A904
:102D3000009711A8FFF7A4FC139A1499059200229A
:102D4000119B009212981593059A0192002901D0C7
:102D5000104602E0791C40180190381A01D50198FC
:102D600004E04042401E0090781C0190C01B02907D
:102D700043E0012F00DA01270021112F01DD11208E
:102D800000E038460191009008A911A8FFF778FCEF
:102D900013990591119A00211298159200910197AB
:102DA00021070CD40599B94201DB019900E001919A
:102DB000012904DD159A491E515C302906D0B8421C
:102DC00001DA011D05DA0121029115E00199491E80
:102DD000EDE7002805DC0099411800910199091AD6
:102DE00003E0019A411C914200DD01910099401AD3
:102DF000401C02900120C0070390200706D40299CE
:102E00000198814202DB0020C04302900020694605
:102E1000C87707AF012103980337C907884224D038
:102E2000022011902B201290039800280CDA4042C7
:102E300003902D20129007E00A210398FDF723FA52
:102E400030317F1E039039701199481E119000296E
:102E5000F2DC03980028EFD1791E129808703078C0
:102E6000202108404530BF1E387006A8C01BC01D79
:102E7000039010980078002800D001200199411893
:102E80000298C0170918039809180498401A401EA0
:102E90000490E00306D421461A9B199A049800F086
:102EA0005FF8451910980078002803D01A9A1999EC
:102EB00090476D1CE00324D521461A9B199A04986B
:102EC00000F04EF845191CE00098002807DB009937
:102ED0000598884203DD1598405C199901E019991D
:102EE00030201A9A904700986D1C401C0090029860
:102EF000401E0290002804D11A9A2E20199990475A
:102F00006D1C0199481E01900029DDDC05E0387830
:102F10001A9A7F1C199990476D1C0399481E0390BB
:102F20000029F4DC21461A9B199A0498ACE60000AB
:102F30002D0000002B000000200000000000000019
:102F4000F8B5044600251E461746880404D405E05B
:102F500039462020B0476D1C641EF9D52846F8BDBF
:102F6000FFB50446002581B01E46C80301D53027B1
:102F700000E02027880404D505E038460399B047CF
:102F80006D1C641EF9D5284605B0F0BD0A68531CB7
:102F90000B60107070470000032801DA00207047B2
:102FA00081000748002209184039486B4A6300280D
:102FB00002D00168496808470020C04370470000FC
:102FC00084060010F0B50E4683B0044632A1FDF72A
:102FD0008BFE002809D0314F0025A8003858002862
:102FE00009D06D1C102DF8D351E02D490868421C02
:102FF0000A6003B0F0BD102D49D220783A2811D0D4
:1030000021466846FFF732FA6846FFF71CFA0028A7
:103010003DD06846FFF71CFA0028684609D0FFF744
:1030200002FA2DE06A461FA12046FDF77BFE0098BC
:1030300026E0FFF7EBF9002829D0B10701D50224DB
:1030400008E0710701D5012404E0310701D5092406
:1030500000E000243107890F02D0012149020C430E
:10306000710702D5012189020C43264604466846B1
:10307000FFF7FAF9014620683246836820469847F0
:10308000002804D0A9007850E81C03B0F0BD00204F
:10309000C04303B0F0BD00003A7474008406001011
:1030A000080100103A257000032801DA002070475B
:1030B000064A800080184038406B002803D0026820
:1030C0001369002218470020C0437047840600108F
:1030D00070B514460E46032814DA1248006800281A
:1030E00004D1114A1149124800F07CFD0025002C42
:1030F00006D9715D0E4800F0E9FD6D1CA542F8D3BC
:1031000020460AE00B49800040184038406B0028F8
:1031100005D001680B6831469847201A70BD002021
:10312000C04370BD1C010010A4160000A8170000C9
:10313000240100108406001070B50C4605461349A2
:10314000204600F0FBFB28701148816B1022914350
:103150008163104801685202114301600E49E0B2D8
:10316000401801688022914301600C480C490068B6
:103170004A1E8018FDF79DF8401E0A4900020860AB
:103180000249204600F008FC70BD0000C04000006D
:103190000082044080800440004004401001001080
:1031A00020AA440000C00140F0B429490A68120A6C
:1031B00012020A600A68047801273B46A3401A43BA
:1031C0000A600A683B061A430A604A68002AFCDA69
:1031D0000C689C430C6012040C68920D240A2402B3
:1031E0000C600D6806783C46B44025430D600C68C1
:1031F0001C430C604C68002CFCDA0D689D430D608C
:1032000024040D68A40D2D0A2D020D600D680078B0
:1032100087403D430D6008681843086048680028EF
:10322000FCDA0D689D430D600004800DA24202D9B6
:10323000114622460C46844200D90446A24200D9D7
:103240001446A001A105F0BC890E08437047000098
:1032500000C001400FB410B503AA03480299FFF75C
:1032600091F9012000F002F880070010044605489B
:10327000FFF7DFF90448FFF7DCF9002C01D000F07C
:1032800029FAFEE76C0700108007001010B500282F
:1032900023D0124B0022001F196803E0814203D89B
:1032A0000A4649680029F9D1002A0AD01368841A0D
:1032B0009C4204D1006818181060104602E050606B
:1032C00000E01860002907D002680B1A934203D16E
:1032D0000B68D21802604968416010BD4C010010B3
:1032E00070B504460020205E0D46401C04D13822F3
:1032F0000B490CA000F0C6F920880005020F012040
:10330000002D07D0012D04D1A1680B689040034324
:103310000B6070BDA1680B6890408343F8E7000024
:10332000504500006F626A2D3E70696E20213D207D
:103330002850696E4E616D65294E430070B5054693
:103340000180481C29D00804000F05220004120740
:10335000861800200C460C290CD010498C4209D04C
:103360000F498C4206D00F498C4203D02521C90158
:103370008C4200D101200146204600F077FA20055A
:10338000000F012181408800801968600120C0037E
:103390003018A86004483018E86070BD740B000055
:1033A000781000007C110000FC3F000070B5012681
:1033B00005460C46FFF7C2FF611C07D000212846D6
:1033C000FFF78EFF3146284600F0CBF870BD0000B5
:1033D00070B50D4604460026FFF7B0FF6D1C18D0EF
:1033E000A05F401C04D121220A490B4800F04AF991
:1033F00020880005010FE068026801238B409A4392
:10340000026001212046FFF76BFF3146204600F0A5
:10341000A8F870BDCC440000B444000010B50020F2
:1034200000F0A6F810BD10B5012000F0A1F810BD05
:1034300010B5022000F09CF810BD10B5032000F07C
:1034400097F810BD00680021014A800011507047B4
:10345000C4060010FFB507460C461C4881B0491C45
:103460001DD01B49BC800A6021041A4E0D0F18D0D4
:10347000012D1DD0022D22D0032D10D116491C2064
:10348000FEF708FC300530600C2045432005000F96
:103490002818124B8200049999503860002005B01A
:1034A000F0BD0F491F20FEF7F5FB0120C007EAE73A
:1034B0000C491E20FEF7EEFB01208007E3E70A49D6
:1034C0001D20FEF7E7FB01204007DCE7FFFFFFFFC1
:1034D0001401001000E100E03B340000C4060010BD
:1034E0001D340000273400003134000010B48388FC
:1034F00005241804000F0004240700191B051C0FE5
:103500000123A3400124E4030019C4691C43C461DE
:1035100044689C43446004691C4214D0002A03D0D0
:1035200081681943816007E082689A4382600129BB
:10353000C16806D01943C16001691943016110BC1B
:1035400070479943F7E784689C4384600129C16808
:1035500005D09943C160002AEED110BC70471943D1
:10356000F8E710B502460020105E00F0A3F910BD88
:10357000052270B5010412078B180121C9035C18DC
:10358000A1691F4A491E0D46490815401140691896
:103590001C4A0D4689081540114069181A4A0D4603
:1035A0000909154011406918184A0D46090A1540C5
:1035B000114069188AB2090C51180C225043A569B0
:1035C0000818A168134A0D42114912680BD0FF2553
:1035D000AD015B19DB6BA5692B4208D10BE090476D
:1035E000A069E06170BDA369E5682B4203D080004B
:1035F00008580121F3E7800008580221EFE7000096
:1036000055555555333333330F0F0F0FFF00FF0060
:10361000C406001014010010F0B50B30C108C90039
:10362000144F0026144A0FE003688B420BD38B42E1
:1036300005D95C1A4318456830C3083B00E043686D
:10364000136002C004E0021D10680028ECD130466F
:10365000002803D13868002801D00020F0BD064AB8
:1036600006481060064A121AD208D20044C001204F
:103670003860D7E7500100104C0100109C07001083
:103680009807001008B500920B46024603A11048A7
:10369000FEF746FF00F01EF808BD00006D6265648D
:1036A000206173736572746174696F6E20666169FD
:1036B0006C65643A2025732C2066696C653A202578
:1036C000732C206C696E65202564200A00000000C0
:1036D0008007001090B072B6AD24640121466846A0
:1036E000FFF776FE75252D01294604A8FFF770FE29
:1036F000214608A8FFF76CFE29460CA8FFF768FED4
:10370000012569460020085E401C04D1212254494D
:103710005448FFF7B7FF6946088803990005096810
:10372000000F2A4682400398114301606946102029
:10373000085E401C04D1212249494A48FFF7A2FFF4
:103740006846008A079900050968000F2A468240EA
:1037500007989143016068462021415E491C04D1CD
:1037600021223F493F48FFF78DFF6846008C0B99A7
:1037700000050968000F2A4682400B9891430160BA
:1037800068463021415E491C04D121223449354824
:10379000FFF778FF6846008E0F9900050968000F53
:1037A0002A4682400F9811430160962000F084FB66
:1037B00068460021415E491C04D12122284929483C
:1037C000FFF760FF68460088039900050968000F4D
:1037D0002A46824003989143016068461021415E69
:1037E000491C04D121221E491E48FFF74BFF6846A1
:1037F000008A079900050968000F2A468240079849
:1038000011432C46016068462021415E491C04D1C9
:10381000212213491348FFF735FF6846008C0B99A6
:1038200000050968000F224682400B981143016091
:1038300068463021415E491C04D1212208490948CB
:10384000FFF720FF6846008E0F9900050968000FFA
:1038500084400F98A1430160962000F02DFB50E7B3
:1038600050400000384000007047704770B5044673
:103870000D46401C04D11522074908A0FFF702FF9E
:103880000B49E0B2401801686A07C908C900520F25
:103890001143016070BD0000BC45000070696E20DE
:1038A000213D202850696E4E616D65294E43000010
:1038B0000040044070B504460D46401C04D11E2251
:1038C0000A490BA0FFF7DEFE69070E4AE0B2C90FF6
:1038D00083181A6818208243A807C00E10430122DB
:1038E0009202904389020143196070BDBC450000FB
:1038F00070696E20213D202850696E4E616D6529EA
:103900004E43000000400440884202D0421C01D1D6
:103910000846704710B5491C04D003A0FFF79AFC75
:103920000020C04310BD000070696E6D6170206D95
:1039300069732D6D6174636800000000002210B58A
:10394000D243431C0BD00023CB5E5B1C0ED0002364
:10395000CB5E834205D14C68601C08D00AE010465B
:1039600010BD0C310023CB5E5B1CF0D1144602A0CD
:10397000FFF770FC204610BD70696E6D6170206E9F
:103980006F7420666F756E6420666F72207065724A
:103990006970686572616C0010B50446401C0FD0F8
:1039A0000020085E401C11D00020085EA04208D113
:1039B00089682046FFF75AFF00212046FFF77AFF6B
:1039C00010BD0C310020085E401CEDD101A0FFF7B6
:1039D00041FC10BD636F756C64206E6F742070695C
:1039E0006E6F757400000000F3B543498BB0012081
:1039F00088614248006801900C9801010198FCF729
:103A000042FC80B206900020099001200027079018
:103A1000002953D00C9801240025049002E00025D1
:103A2000002C45D90198604340000ED50C98291907
:103A30004143019A60005043FCF725FC0009C10393
:103A40000120C0030818060C0DE00C982919414309
:103A5000019AA0005043FCF716FC4009C103012065
:103A6000C0030818060C002E00D10126002D02D03C
:103A7000022E00D2022628197043C100019860432B
:103A8000FCF701FC401C0C994008401A00D540424C
:103A90000499884208DA07940C99099506960490CF
:103AA000884201D1012703E06D1CEDB2A542B9D3D4
:103AB000641CE4B2102C01D2002FB0D00B98006827
:103AC000C26880210A43C2600698020A0B98006807
:103AD00042600698C2B20B98006802600798099A83
:103AE000000110430B9A126890620B980068C2683C
:103AF0008A43C2600DB0F0BD808004401001001008
:103B0000F8B51D4614460F460646012B06D0022D79
:103B100004D0BC221E491FA0FFF7B4FD042F01DD15
:103B2000092F04DBBD221A4924A0FFF7ABFD002CAE
:103B30000CD0012C0AD0022C08D0032C06D0042C67
:103B400004D0BE2212492648FFF79CFD681E7F1F45
:103B5000052C14D223007B441B79DB189F440204FC
:103B6000070A0D00002500E00125002407E00125DB
:103B70002C4604E00125022401E0012503248000F5
:103B80003843E9000843210108433168C860F8BDA3
:103B9000984100002873746F705F62697473203DF0
:103BA0003D203129207C7C202873746F705F62690E
:103BB0007473203D3D2032290000000028646174A8
:103BC000615F62697473203E2034292026262028F4
:103BD000646174615F62697473203C20392900005C
:103BE00008420000F7B5044628490198FFF7A6FEF1
:103BF000054627490298FFF7A1FE01462846FFF730
:103C000083FE0546401C04D13C22224922A0FFF736
:103C100039FD254825600168012212031143016026
:103C20002068012686602068002747604B21C90173
:103C30002046FFF7D9FE0123002208212046FFF786
:103C40005FFF12490198FFF7A7FE11490298FFF79D
:103C5000A3FE0198401C03D002210198FFF72AFE21
:103C60000298401C03D002210298FFF723FE0F4860
:103C7000281800D167600E48854205D10D4846607E
:103C8000626821680261C16003B0F0BD204100009C
:103C90005C4100009841000028696E7429756172CA
:103CA0007420213D204E4300808004400080FFBFEF
:103CB0000080004018010010034B996040681946CD
:103CC00080000A507047000018010010006820238F
:103CD00042691A42FCD0016070470000014901208E
:103CE0000860704700800140024841694908490066
:103CF00041617047008001400F48016800291AD1D6
:103D000070B5012505600D48016802151143016079
:103D10000B480C4C0068022161600B49FCF7B3FAB8
:103D2000401EE060656009491320FDF7B3FF0849B4
:103D3000E804086070BD70472C01001080800440CA
:103D4000100100100080014040420F00913D000032
:103D500000E100E070B5054672B642600B4A0160B2
:103D600014680020002C0CD02368CB1A03D4204602
:103D7000A468002CF8D1002803D08560AC6062B63E
:103D800070BD0846156000F07BF8F7E734010010BD
:103D900010B5FFF7A3FF0D4C206800280ED000F0EF
:103DA00017F821680A68101A00280ADC8868206061
:103DB0006268002AF0D048689047EDE7FFF794FF6B
:103DC00010BD086800F05CF810BD00003401001060
:103DD00070B50F480F4C0168002917D10125056007
:103DE0000D4801680215114301600C48022100686A
:103DF00061600B49FCF747FA401EE06065600949C5
:103E00001320FDF747FF0849E8040860A06870BD6B
:103E10002C0100100080014080800440100100103F
:103E200040420F00913D000000E100E010B572B685
:103E30000D4A116881420AD180681060002803D0C1
:103E4000006800F01DF80CE0FFF74EFF09E00029C4
:103E500007D08A68824202D18068886001E0110040
:103E6000F7D162B610BD00003401001010B5044651
:103E7000FFF742FF0148446010BD0000340100100C
:103E80000349886148690122104348617047000076
:103E90000080014070B50749FDF786F8FDF79DFAEF
:103EA0000446FFF795FF0546FFF792FF401BA0422F
:103EB000FAD370BD0024744970B57D21C900484310
:103EC0000446FFF785FF0546FFF782FF401BA0422F
:103ED000FAD370BD7FB504460D46294620463C30D6
:103EE000039B029A00F068F8012202212046143058
:103EF000FFF7FCFA7FBD7FB504460D4629462046F4
:103F00002030039B029A00F057F801221146204608
:103F10001430FFF7EBFA7FBDF3B58BB004460A947B
:103F2000082208A80C99FCF7BBFE09990898019192
:103F3000009048100A9C0519089803910290C80740
:103F4000C00F002804D1099908980591049006E053
:103F5000099908980791069029684618306807461D
:103F60002846B8470DB0F0BDF3B58BB004460A94AF
:103F7000082208A80C99FCF793FE0999089801916A
:103F8000009048100A9C0519089803910290C807F0
:103F9000C00F002804D1099908980591049006E003
:103FA00009990898079106902968461830680746CD
:103FB0002846B8470DB0F0BD0FB54160039B029A8B
:103FC000C3608260024A8261002202600FBD00006D
:103FD000693F00007FB582B005460C460A9E284620
:103FE0001430059A0499019200914460019A009955
:103FF000C2608160054981610021016000BF3146D6
:104000002846FEF74BF906B070BD0000193F0000CE
:104010008D080000000000005D08000000000000A6
:104020008F0B0000000000008F0B0000000000005C
:10403000830C0000000000006F626A2D3E70696E04
:1040400020213D202850696E4E616D65294E430048
:10405000433A5C436F64655C6769745F7265706F57
:104060005C6769746875625C6D6265642D6F666615
:10407000696369616C5C6275696C645C6D626564DE
:104080005C5441524745545F4C5043313131345CAC
:104090005441524745545F4E58505C544152474535
:1040A000545F4C5043313158585F31314358585C5C
:1040B0006770696F5F6F626A6563742E68000000E5
:1040C000740B0000000000000200000078100000E7
:1040D00001000000020000007C110000020000004E
:1040E0000200000080120000030000000200000037
:1040F0009414000005000000010000006C1A00008C
:104100000600000001000000981B000007000000EE
:1041100001000000FFFF0000FFFFFFFF00000000A4
:104120002428000000800040020000004835000004
:104130000080004002000000843000000080004049
:1041400003000000A81700000080004001000000EC
:10415000FFFF0000FFFFFFFF00000000202700001E
:1041600000800040020000003C340000008000405D
:1041700002000000883100000080004003000000C1
:10418000A41600000080004001000000FFFF0000B6
:10419000FFFFFFFF00000000433A5C436F64655C73
:1041A0006769745F7265706F5C6769746875625C7B
:1041B0006D6265642D6F6666696369616C5C6C69CC
:1041C000627261726965735C6D6265645C74617270
:1041D000676574735C68616C5C5441524745545F19
:1041E0004E58505C5441524745545F4C5043313116
:1041F00058585F31314358585C73657269616C5F20
:104200006170692E63000000287061726974792002
:104210003D3D205061726974794E6F6E6529207C36
:104220007C2028706172697479203D3D2050617254
:104230006974794F646429207C7C202870617269DC
:104240007479203D3D205061726974794576656EC0
:1042500029207C7C2028706172697479203D3D2082
:10426000506172697479466F726365643129207C8C
:104270007C2028706172697479203D3D2050617204
:10428000697479466F726365643029006F626A2DC4
:104290003E70696E20213D202850696E4E616D652B
:1042A000294E4300433A5C436F64655C6769745F01
:1042B0007265706F5C6769746875625C6D62656475
:1042C0002D6F6666696369616C5C6275696C645CBC
:1042D0006D6265645C5441524745545F4C504331B4
:1042E0003131345C5441524745545F4E58505C5410
:1042F00041524745545F4C5043313158585F31313A
:104300004358585C6770696F5F6F626A6563742EAB
:1043100068000000433A5C436F64655C6769745FE2
:104320007265706F5C6769746875625C6D62656404
:104330002D6F6666696369616C5C6C69627261723B
:104340006965735C6D6265645C636F6D6D6F6E5CF7
:104350004275734F75742E63707000006F626A2D22
:104360003E70696E20213D202850696E4E616D655A
:10437000294E4300433A5C436F64655C6769745F30
:104380007265706F5C6769746875625C6D626564A4
:104390002D6F6666696369616C5C6275696C645CEB
:1043A0006D6265645C5441524745545F4C504331E3
:1043B0003131345C5441524745545F4E58505C543F
:1043C00041524745545F4C5043313158585F313169
:1043D0004358585C6770696F5F6F626A6563742EDB
:1043E00068000000433A5C436F64655C6769745F12
:1043F0007265706F5C6769746875625C6D62656434
:104400002D6F6666696369616C5C6C69627261726A
:104410006965735C6D6265645C636F6D6D6F6E5C26
:10442000427573496E2E6370700000006F626A2DD2
:104430003E70696E20213D202850696E4E616D6589
:10444000294E4300433A5C436F64655C6769745F5F
:104450007265706F5C6769746875625C6D626564D3
:104460002D6F6666696369616C5C6275696C645C1A
:104470006D6265645C5441524745545F4C50433112
:104480003131345C5441524745545F4E58505C546E
:1044900041524745545F4C5043313158585F313198
:1044A0004358585C6770696F5F6F626A6563742E0A
:1044B000680000006F626A2D3E70696E20213D2009
:1044C0002850696E4E616D65294E4300433A5C4346
:1044D0006F64655C6769745F7265706F5C6769744F
:1044E0006875625C6D6265642D6F6666696369619B
:1044F0006C5C6275696C645C6D6265645C544152AD
:104500004745545F4C5043313131345C544152473C
:1045100045545F4E58505C5441524745545F4C508F
:1045200043313158585F31314358585C6770696F77
:104530005F6F626A6563742E6800000070696E20A8
:10454000213D202850696E4E616D65294E43000063
:10455000433A5C436F64655C6769745F7265706F52
:104560005C6769746875625C6D6265642D6F666610
:10457000696369616C5C6C69627261726965735CC4
:104580006D6265645C746172676574735C68616CAC
:104590005C5441524745545F4E58505C5441524719
:1045A00045545F4C5043313158585F31314358586E
:1045B0005C6770696F5F6170692E6300433A5C43AA
:1045C0006F64655C6769745F7265706F5C6769745E
:1045D0006875625C6D6265642D6F666669636961AA
:1045E0006C5C6C69627261726965735C6D62656452
:1045F0005C746172676574735C68616C5C54415291
:104600004745545F4E58505C5441524745545F4CA7
:104610005043313158585F31314358585C70696E9E
:104620006D61702E63000000DDDDDDDDDCBBBBDD18
:10463000DDDDDDDDDDDDDDDD988888888888888842
:104640007777777777888888855555566666666662
:104650006666666666688888833333322222222241
:10466000222222222228888D000000000000000063
:10467000ED250000ED250000ED250000ED250000F2
:10468000ED250000ED25000000000000951D000054
:10469000000000000000000000000000000000001A
:1046A0000000000000000000000000006D1E00007F
:1046B00000000000ED2500000000000000000000E8
:1046C000191F0000000000000000000000000000B2
:1046D0002920000000000000000000000000000091
:1046E0009921000000000000000000000000000010
:1046F000F9210000000000000000000000000000A0
:10470000B8FFFFFF000000000D220000052200009E
:10471000000000000000000009220000000000006E
:10472000000000000000000000000000E524000080
:1047300000000000B4FFFFFF0000000000000000C8
:104740000000000000000000000000000D2200003A
:104750000522000000000000000000000922000007
:1047600000000000000000007922000000000000AE
:10477000ED250000ED250000FCFFFFFF000000001C
:104780000000000000000000000000000000000029
:104790001123000000000000CD22000000000000F6
:1047A00000000000000000000000000035230000B1
:1047B0000000000000000000A52300000000000031
:1047C0000000000000000000ED250000ED250000C5
:1047D000ED250000ED250000ED250000ED25000091
:1047E00000000000FD23000000000000FCFFFFFFB0
:1047F0000000000000000000000000006D62656421
:104800002F5441524745545F4C5043313131342F7E
:104810005441524745545F4E58502F5441524745DA
:10482000545F4C5043313158585F31314358582F01
:104830006770696F5F6F626A6563742E680000005D
:1048400064480000C000001094000000F62500003D
:10485000F84800005401001044060000062600003D
:10486000F9BCFFFF00000000000000007300000022
:104870000000000000000000000000000000000038
:104880000000000000000000000000000000000028
:104890000000000000000000000000000000000018
:1048A0000000000000000000000000000000000008
:1048B00000000010006CDC0200000000000000009E
:1048C00000000000000000000000000000000000E8
:1048D00000000000000000000000000000000000D8
:1048E00000000000000000000000000000000000C8
:0848F0000000000000000000C0
:0400000500000201F4
:00000001FF
